{
	"FudMe.sol": {
		"FundMe": {
			"abi": [
				{
					"inputs": [],
					"name": "fund",
					"outputs": [],
					"stateMutability": "payable",
					"type": "function"
				},
				{
					"inputs": [],
					"name": "getPrice",
					"outputs": [],
					"stateMutability": "nonpayable",
					"type": "function"
				},
				{
					"inputs": [],
					"name": "minUsd",
					"outputs": [
						{
							"internalType": "uint256",
							"name": "",
							"type": "uint256"
						}
					],
					"stateMutability": "view",
					"type": "function"
				}
			],
			"devdoc": {
				"kind": "dev",
				"methods": {},
				"version": 1
			},
			"evm": {
				"assembly": "    /* \"FudMe.sol\":67:278  contract FundMe{... */\n  mstore(0x40, 0x80)\n    /* \"FudMe.sol\":115:116  5 */\n  0x05\n    /* \"FudMe.sol\":91:116  uint256 public minUsd = 5 */\n  0x00\n  sstore\n    /* \"FudMe.sol\":67:278  contract FundMe{... */\n  callvalue\n  dup1\n  iszero\n  tag_1\n  jumpi\n  0x00\n  dup1\n  revert\ntag_1:\n  pop\n  dataSize(sub_0)\n  dup1\n  dataOffset(sub_0)\n  0x00\n  codecopy\n  0x00\n  return\nstop\n\nsub_0: assembly {\n        /* \"FudMe.sol\":67:278  contract FundMe{... */\n      mstore(0x40, 0x80)\n      jumpi(tag_1, lt(calldatasize, 0x04))\n      shr(0xe0, calldataload(0x00))\n      dup1\n      0x51b80e41\n      eq\n      tag_2\n      jumpi\n      dup1\n      0x98d5fdca\n      eq\n      tag_3\n      jumpi\n      dup1\n      0xb60d4288\n      eq\n      tag_4\n      jumpi\n    tag_1:\n      0x00\n      dup1\n      revert\n        /* \"FudMe.sol\":91:116  uint256 public minUsd = 5 */\n    tag_2:\n      callvalue\n      dup1\n      iszero\n      tag_5\n      jumpi\n      0x00\n      dup1\n      revert\n    tag_5:\n      pop\n      tag_6\n      tag_7\n      jump\t// in\n    tag_6:\n      mload(0x40)\n      tag_8\n      swap2\n      swap1\n      tag_9\n      jump\t// in\n    tag_8:\n      mload(0x40)\n      dup1\n      swap2\n      sub\n      swap1\n      return\n        /* \"FudMe.sol\":239:271  function getPrice() public{... */\n    tag_3:\n      callvalue\n      dup1\n      iszero\n      tag_10\n      jumpi\n      0x00\n      dup1\n      revert\n    tag_10:\n      pop\n      tag_11\n      tag_12\n      jump\t// in\n    tag_11:\n      stop\n        /* \"FudMe.sol\":122:235  function fund() public payable {... */\n    tag_4:\n      tag_13\n      tag_14\n      jump\t// in\n    tag_13:\n      stop\n        /* \"FudMe.sol\":91:116  uint256 public minUsd = 5 */\n    tag_7:\n      sload(0x00)\n      dup2\n      jump\t// out\n        /* \"FudMe.sol\":239:271  function getPrice() public{... */\n    tag_12:\n      jump\t// out\n        /* \"FudMe.sol\":122:235  function fund() public payable {... */\n    tag_14:\n        /* \"FudMe.sol\":160:166  minUsd */\n      0x00\n      dup1\n        /* \"FudMe.sol\":160:168  minUsd++ */\n      dup2\n      sload\n      dup1\n      swap3\n      swap2\n      swap1\n      tag_17\n      swap1\n      tag_18\n      jump\t// in\n    tag_17:\n      swap2\n      swap1\n      pop\n      sstore\n      pop\n        /* \"FudMe.sol\":196:200  1e18 */\n      0x0de0b6b3a7640000\n        /* \"FudMe.sol\":183:192  msg.value */\n      callvalue\n        /* \"FudMe.sol\":183:200  msg.value >= 1e18 */\n      lt\n      iszero\n        /* \"FudMe.sol\":175:227  require(msg.value >= 1e18, \"didn't send enough ETH\") */\n      tag_19\n      jumpi\n      mload(0x40)\n      0x08c379a000000000000000000000000000000000000000000000000000000000\n      dup2\n      mstore\n      0x04\n      add\n      tag_20\n      swap1\n      tag_21\n      jump\t// in\n    tag_20:\n      mload(0x40)\n      dup1\n      swap2\n      sub\n      swap1\n      revert\n    tag_19:\n        /* \"FudMe.sol\":122:235  function fund() public payable {... */\n      jump\t// out\n        /* \"#utility.yul\":7:84   */\n    tag_22:\n        /* \"#utility.yul\":44:51   */\n      0x00\n        /* \"#utility.yul\":73:78   */\n      dup2\n        /* \"#utility.yul\":62:78   */\n      swap1\n      pop\n        /* \"#utility.yul\":7:84   */\n      swap2\n      swap1\n      pop\n      jump\t// out\n        /* \"#utility.yul\":90:208   */\n    tag_23:\n        /* \"#utility.yul\":177:201   */\n      tag_31\n        /* \"#utility.yul\":195:200   */\n      dup2\n        /* \"#utility.yul\":177:201   */\n      tag_22\n      jump\t// in\n    tag_31:\n        /* \"#utility.yul\":172:175   */\n      dup3\n        /* \"#utility.yul\":165:202   */\n      mstore\n        /* \"#utility.yul\":90:208   */\n      pop\n      pop\n      jump\t// out\n        /* \"#utility.yul\":214:436   */\n    tag_9:\n        /* \"#utility.yul\":307:311   */\n      0x00\n        /* \"#utility.yul\":345:347   */\n      0x20\n        /* \"#utility.yul\":334:343   */\n      dup3\n        /* \"#utility.yul\":330:348   */\n      add\n        /* \"#utility.yul\":322:348   */\n      swap1\n      pop\n        /* \"#utility.yul\":358:429   */\n      tag_33\n        /* \"#utility.yul\":426:427   */\n      0x00\n        /* \"#utility.yul\":415:424   */\n      dup4\n        /* \"#utility.yul\":411:428   */\n      add\n        /* \"#utility.yul\":402:408   */\n      dup5\n        /* \"#utility.yul\":358:429   */\n      tag_23\n      jump\t// in\n    tag_33:\n        /* \"#utility.yul\":214:436   */\n      swap3\n      swap2\n      pop\n      pop\n      jump\t// out\n        /* \"#utility.yul\":442:622   */\n    tag_24:\n        /* \"#utility.yul\":490:567   */\n      0x4e487b7100000000000000000000000000000000000000000000000000000000\n        /* \"#utility.yul\":487:488   */\n      0x00\n        /* \"#utility.yul\":480:568   */\n      mstore\n        /* \"#utility.yul\":587:591   */\n      0x11\n        /* \"#utility.yul\":584:585   */\n      0x04\n        /* \"#utility.yul\":577:592   */\n      mstore\n        /* \"#utility.yul\":611:615   */\n      0x24\n        /* \"#utility.yul\":608:609   */\n      0x00\n        /* \"#utility.yul\":601:616   */\n      revert\n        /* \"#utility.yul\":628:861   */\n    tag_18:\n        /* \"#utility.yul\":667:670   */\n      0x00\n        /* \"#utility.yul\":690:714   */\n      tag_36\n        /* \"#utility.yul\":708:713   */\n      dup3\n        /* \"#utility.yul\":690:714   */\n      tag_22\n      jump\t// in\n    tag_36:\n        /* \"#utility.yul\":681:714   */\n      swap2\n      pop\n        /* \"#utility.yul\":736:802   */\n      0xffffffffffffffffffffffffffffffffffffffffffffffffffffffffffffffff\n        /* \"#utility.yul\":729:734   */\n      dup3\n        /* \"#utility.yul\":726:803   */\n      sub\n        /* \"#utility.yul\":723:826   */\n      tag_37\n      jumpi\n        /* \"#utility.yul\":806:824   */\n      tag_38\n      tag_24\n      jump\t// in\n    tag_38:\n        /* \"#utility.yul\":723:826   */\n    tag_37:\n        /* \"#utility.yul\":853:854   */\n      0x01\n        /* \"#utility.yul\":846:851   */\n      dup3\n        /* \"#utility.yul\":842:855   */\n      add\n        /* \"#utility.yul\":835:855   */\n      swap1\n      pop\n        /* \"#utility.yul\":628:861   */\n      swap2\n      swap1\n      pop\n      jump\t// out\n        /* \"#utility.yul\":867:1036   */\n    tag_25:\n        /* \"#utility.yul\":951:962   */\n      0x00\n        /* \"#utility.yul\":985:991   */\n      dup3\n        /* \"#utility.yul\":980:983   */\n      dup3\n        /* \"#utility.yul\":973:992   */\n      mstore\n        /* \"#utility.yul\":1025:1029   */\n      0x20\n        /* \"#utility.yul\":1020:1023   */\n      dup3\n        /* \"#utility.yul\":1016:1030   */\n      add\n        /* \"#utility.yul\":1001:1030   */\n      swap1\n      pop\n        /* \"#utility.yul\":867:1036   */\n      swap3\n      swap2\n      pop\n      pop\n      jump\t// out\n        /* \"#utility.yul\":1042:1214   */\n    tag_26:\n        /* \"#utility.yul\":1182:1206   */\n      0x6469646e27742073656e6420656e6f7567682045544800000000000000000000\n        /* \"#utility.yul\":1178:1179   */\n      0x00\n        /* \"#utility.yul\":1170:1176   */\n      dup3\n        /* \"#utility.yul\":1166:1180   */\n      add\n        /* \"#utility.yul\":1159:1207   */\n      mstore\n        /* \"#utility.yul\":1042:1214   */\n      pop\n      jump\t// out\n        /* \"#utility.yul\":1220:1586   */\n    tag_27:\n        /* \"#utility.yul\":1362:1365   */\n      0x00\n        /* \"#utility.yul\":1383:1450   */\n      tag_42\n        /* \"#utility.yul\":1447:1449   */\n      0x16\n        /* \"#utility.yul\":1442:1445   */\n      dup4\n        /* \"#utility.yul\":1383:1450   */\n      tag_25\n      jump\t// in\n    tag_42:\n        /* \"#utility.yul\":1376:1450   */\n      swap2\n      pop\n        /* \"#utility.yul\":1459:1552   */\n      tag_43\n        /* \"#utility.yul\":1548:1551   */\n      dup3\n        /* \"#utility.yul\":1459:1552   */\n      tag_26\n      jump\t// in\n    tag_43:\n        /* \"#utility.yul\":1577:1579   */\n      0x20\n        /* \"#utility.yul\":1572:1575   */\n      dup3\n        /* \"#utility.yul\":1568:1580   */\n      add\n        /* \"#utility.yul\":1561:1580   */\n      swap1\n      pop\n        /* \"#utility.yul\":1220:1586   */\n      swap2\n      swap1\n      pop\n      jump\t// out\n        /* \"#utility.yul\":1592:2011   */\n    tag_21:\n        /* \"#utility.yul\":1758:1762   */\n      0x00\n        /* \"#utility.yul\":1796:1798   */\n      0x20\n        /* \"#utility.yul\":1785:1794   */\n      dup3\n        /* \"#utility.yul\":1781:1799   */\n      add\n        /* \"#utility.yul\":1773:1799   */\n      swap1\n      pop\n        /* \"#utility.yul\":1845:1854   */\n      dup2\n        /* \"#utility.yul\":1839:1843   */\n      dup2\n        /* \"#utility.yul\":1835:1855   */\n      sub\n        /* \"#utility.yul\":1831:1832   */\n      0x00\n        /* \"#utility.yul\":1820:1829   */\n      dup4\n        /* \"#utility.yul\":1816:1833   */\n      add\n        /* \"#utility.yul\":1809:1856   */\n      mstore\n        /* \"#utility.yul\":1873:2004   */\n      tag_45\n        /* \"#utility.yul\":1999:2003   */\n      dup2\n        /* \"#utility.yul\":1873:2004   */\n      tag_27\n      jump\t// in\n    tag_45:\n        /* \"#utility.yul\":1865:2004   */\n      swap1\n      pop\n        /* \"#utility.yul\":1592:2011   */\n      swap2\n      swap1\n      pop\n      jump\t// out\n\n    auxdata: 0xa264697066735822122097d194b94b5eb68371940e1bef1ffc9c495d5c667f87aad67a50b62a645bb8bb64736f6c63430008180033\n}\n",
				"bytecode": {
					"linkReferences": {},
					"object": "608060405260055f55348015610013575f80fd5b5061023e806100215f395ff3fe608060405260043610610033575f3560e01c806351b80e411461003757806398d5fdca14610061578063b60d428814610077575b5f80fd5b348015610042575f80fd5b5061004b610081565b6040516100589190610103565b60405180910390f35b34801561006c575f80fd5b50610075610086565b005b61007f610088565b005b5f5481565b565b5f8081548092919061009990610149565b9190505550670de0b6b3a76400003410156100e9576040517f08c379a00000000000000000000000000000000000000000000000000000000081526004016100e0906101ea565b60405180910390fd5b565b5f819050919050565b6100fd816100eb565b82525050565b5f6020820190506101165f8301846100f4565b92915050565b7f4e487b71000000000000000000000000000000000000000000000000000000005f52601160045260245ffd5b5f610153826100eb565b91507fffffffffffffffffffffffffffffffffffffffffffffffffffffffffffffffff82036101855761018461011c565b5b600182019050919050565b5f82825260208201905092915050565b7f6469646e27742073656e6420656e6f75676820455448000000000000000000005f82015250565b5f6101d4601683610190565b91506101df826101a0565b602082019050919050565b5f6020820190508181035f830152610201816101c8565b905091905056fea264697066735822122097d194b94b5eb68371940e1bef1ffc9c495d5c667f87aad67a50b62a645bb8bb64736f6c63430008180033",
					"opcodes": "PUSH1 0x80 PUSH1 0x40 MSTORE PUSH1 0x5 PUSH0 SSTORE CALLVALUE DUP1 ISZERO PUSH2 0x13 JUMPI PUSH0 DUP1 REVERT JUMPDEST POP PUSH2 0x23E DUP1 PUSH2 0x21 PUSH0 CODECOPY PUSH0 RETURN INVALID PUSH1 0x80 PUSH1 0x40 MSTORE PUSH1 0x4 CALLDATASIZE LT PUSH2 0x33 JUMPI PUSH0 CALLDATALOAD PUSH1 0xE0 SHR DUP1 PUSH4 0x51B80E41 EQ PUSH2 0x37 JUMPI DUP1 PUSH4 0x98D5FDCA EQ PUSH2 0x61 JUMPI DUP1 PUSH4 0xB60D4288 EQ PUSH2 0x77 JUMPI JUMPDEST PUSH0 DUP1 REVERT JUMPDEST CALLVALUE DUP1 ISZERO PUSH2 0x42 JUMPI PUSH0 DUP1 REVERT JUMPDEST POP PUSH2 0x4B PUSH2 0x81 JUMP JUMPDEST PUSH1 0x40 MLOAD PUSH2 0x58 SWAP2 SWAP1 PUSH2 0x103 JUMP JUMPDEST PUSH1 0x40 MLOAD DUP1 SWAP2 SUB SWAP1 RETURN JUMPDEST CALLVALUE DUP1 ISZERO PUSH2 0x6C JUMPI PUSH0 DUP1 REVERT JUMPDEST POP PUSH2 0x75 PUSH2 0x86 JUMP JUMPDEST STOP JUMPDEST PUSH2 0x7F PUSH2 0x88 JUMP JUMPDEST STOP JUMPDEST PUSH0 SLOAD DUP2 JUMP JUMPDEST JUMP JUMPDEST PUSH0 DUP1 DUP2 SLOAD DUP1 SWAP3 SWAP2 SWAP1 PUSH2 0x99 SWAP1 PUSH2 0x149 JUMP JUMPDEST SWAP2 SWAP1 POP SSTORE POP PUSH8 0xDE0B6B3A7640000 CALLVALUE LT ISZERO PUSH2 0xE9 JUMPI PUSH1 0x40 MLOAD PUSH32 0x8C379A000000000000000000000000000000000000000000000000000000000 DUP2 MSTORE PUSH1 0x4 ADD PUSH2 0xE0 SWAP1 PUSH2 0x1EA JUMP JUMPDEST PUSH1 0x40 MLOAD DUP1 SWAP2 SUB SWAP1 REVERT JUMPDEST JUMP JUMPDEST PUSH0 DUP2 SWAP1 POP SWAP2 SWAP1 POP JUMP JUMPDEST PUSH2 0xFD DUP2 PUSH2 0xEB JUMP JUMPDEST DUP3 MSTORE POP POP JUMP JUMPDEST PUSH0 PUSH1 0x20 DUP3 ADD SWAP1 POP PUSH2 0x116 PUSH0 DUP4 ADD DUP5 PUSH2 0xF4 JUMP JUMPDEST SWAP3 SWAP2 POP POP JUMP JUMPDEST PUSH32 0x4E487B7100000000000000000000000000000000000000000000000000000000 PUSH0 MSTORE PUSH1 0x11 PUSH1 0x4 MSTORE PUSH1 0x24 PUSH0 REVERT JUMPDEST PUSH0 PUSH2 0x153 DUP3 PUSH2 0xEB JUMP JUMPDEST SWAP2 POP PUSH32 0xFFFFFFFFFFFFFFFFFFFFFFFFFFFFFFFFFFFFFFFFFFFFFFFFFFFFFFFFFFFFFFFF DUP3 SUB PUSH2 0x185 JUMPI PUSH2 0x184 PUSH2 0x11C JUMP JUMPDEST JUMPDEST PUSH1 0x1 DUP3 ADD SWAP1 POP SWAP2 SWAP1 POP JUMP JUMPDEST PUSH0 DUP3 DUP3 MSTORE PUSH1 0x20 DUP3 ADD SWAP1 POP SWAP3 SWAP2 POP POP JUMP JUMPDEST PUSH32 0x6469646E27742073656E6420656E6F7567682045544800000000000000000000 PUSH0 DUP3 ADD MSTORE POP JUMP JUMPDEST PUSH0 PUSH2 0x1D4 PUSH1 0x16 DUP4 PUSH2 0x190 JUMP JUMPDEST SWAP2 POP PUSH2 0x1DF DUP3 PUSH2 0x1A0 JUMP JUMPDEST PUSH1 0x20 DUP3 ADD SWAP1 POP SWAP2 SWAP1 POP JUMP JUMPDEST PUSH0 PUSH1 0x20 DUP3 ADD SWAP1 POP DUP2 DUP2 SUB PUSH0 DUP4 ADD MSTORE PUSH2 0x201 DUP2 PUSH2 0x1C8 JUMP JUMPDEST SWAP1 POP SWAP2 SWAP1 POP JUMP INVALID LOG2 PUSH5 0x6970667358 0x22 SLT KECCAK256 SWAP8 0xD1 SWAP5 0xB9 0x4B MCOPY 0xB6 DUP4 PUSH18 0x940E1BEF1FFC9C495D5C667F87AAD67A50B6 0x2A PUSH5 0x5BB8BB6473 PUSH16 0x6C634300081800330000000000000000 "
				},
				"gasEstimates": {
					"creation": {
						"codeDepositCost": "114800",
						"executionCost": "22262",
						"totalCost": "137062"
					},
					"external": {
						"fund()": "24804",
						"getPrice()": "143",
						"minUsd()": "2402"
					}
				},
				"methodIdentifiers": {
					"fund()": "b60d4288",
					"getPrice()": "98d5fdca",
					"minUsd()": "51b80e41"
				}
			},
			"storageLayout": {
				"storage": [
					{
						"astId": 4,
						"contract": "FudMe.sol:FundMe",
						"label": "minUsd",
						"offset": 0,
						"slot": "0",
						"type": "t_uint256"
					}
				],
				"types": {
					"t_uint256": {
						"encoding": "inplace",
						"label": "uint256",
						"numberOfBytes": "32"
					}
				}
			},
			"userdoc": {
				"kind": "user",
				"methods": {},
				"version": 1
			}
		}
	}
}