{
	"FundMe.sol": {
		"FundMe": {
			"abi": [
				{
					"inputs": [],
					"stateMutability": "nonpayable",
					"type": "constructor"
				},
				{
					"inputs": [],
					"name": "NotOwner",
					"type": "error"
				},
				{
					"stateMutability": "payable",
					"type": "fallback"
				},
				{
					"inputs": [
						{
							"internalType": "address",
							"name": "funder",
							"type": "address"
						}
					],
					"name": "addressToAmountFunded",
					"outputs": [
						{
							"internalType": "uint256",
							"name": "amountFunded",
							"type": "uint256"
						}
					],
					"stateMutability": "view",
					"type": "function"
				},
				{
					"inputs": [],
					"name": "fund",
					"outputs": [],
					"stateMutability": "payable",
					"type": "function"
				},
				{
					"inputs": [
						{
							"internalType": "uint256",
							"name": "",
							"type": "uint256"
						}
					],
					"name": "funders",
					"outputs": [
						{
							"internalType": "address",
							"name": "",
							"type": "address"
						}
					],
					"stateMutability": "view",
					"type": "function"
				},
				{
					"inputs": [],
					"name": "i_owner",
					"outputs": [
						{
							"internalType": "address",
							"name": "",
							"type": "address"
						}
					],
					"stateMutability": "view",
					"type": "function"
				},
				{
					"inputs": [],
					"name": "minUsd",
					"outputs": [
						{
							"internalType": "uint256",
							"name": "",
							"type": "uint256"
						}
					],
					"stateMutability": "view",
					"type": "function"
				},
				{
					"inputs": [],
					"name": "withdraw",
					"outputs": [],
					"stateMutability": "nonpayable",
					"type": "function"
				},
				{
					"stateMutability": "payable",
					"type": "receive"
				}
			],
			"devdoc": {
				"kind": "dev",
				"methods": {},
				"version": 1
			},
			"evm": {
				"assembly": "    /* \"FundMe.sol\":198:1987  contract FundMe{... */\n  mstore(0x40, 0xa0)\n    /* \"FundMe.sol\":285:289  5e18 */\n  0x4563918244f40000\n    /* \"FundMe.sol\":261:289  uint256 public minUsd = 5e18 */\n  0x00\n  sstore\n    /* \"FundMe.sol\":457:510  constructor() {... */\n  callvalue\n  dup1\n  iszero\n  tag_1\n  jumpi\n  0x00\n  dup1\n  revert\ntag_1:\n  pop\n    /* \"FundMe.sol\":492:502  msg.sender */\n  caller\n    /* \"FundMe.sol\":482:502  i_owner = msg.sender */\n  0xffffffffffffffffffffffffffffffffffffffff\n  and\n  0x80\n  dup2\n  0xffffffffffffffffffffffffffffffffffffffff\n  and\n  dup2\n  mstore\n  pop\n  pop\n    /* \"FundMe.sol\":198:1987  contract FundMe{... */\n  mload(0x80)\n  codecopy(0x00, dataOffset(sub_0), dataSize(sub_0))\n  0x00\n  assignImmutable(\"0x35bb2e240092263378f77ea1e9c278099a33b604c4c4e26d13ea227e8bb74470\")\n  return(0x00, dataSize(sub_0))\nstop\n\nsub_0: assembly {\n        /* \"FundMe.sol\":198:1987  contract FundMe{... */\n      mstore(0x40, 0x80)\n      jumpi(tag_1, lt(calldatasize, 0x04))\n      shr(0xe0, calldataload(0x00))\n      dup1\n      0x3ccfd60b\n      eq\n      tag_3\n      jumpi\n      dup1\n      0x3e47d6f3\n      eq\n      tag_4\n      jumpi\n      dup1\n      0x51b80e41\n      eq\n      tag_5\n      jumpi\n      dup1\n      0xb60d4288\n      eq\n      tag_6\n      jumpi\n      dup1\n      0xdba6335f\n      eq\n      tag_7\n      jumpi\n      dup1\n      0xdc0d3dff\n      eq\n      tag_8\n      jumpi\n      jump(tag_2)\n    tag_1:\n      jumpi(tag_2, calldatasize)\n        /* \"FundMe.sol\":1908:1914  fund() */\n      tag_11\n        /* \"FundMe.sol\":1908:1912  fund */\n      tag_12\n        /* \"FundMe.sol\":1908:1914  fund() */\n      jump\t// in\n    tag_11:\n        /* \"FundMe.sol\":198:1987  contract FundMe{... */\n      stop\n    tag_2:\n        /* \"FundMe.sol\":1970:1976  fund() */\n      tag_15\n        /* \"FundMe.sol\":1970:1974  fund */\n      tag_12\n        /* \"FundMe.sol\":1970:1976  fund() */\n      jump\t// in\n    tag_15:\n        /* \"FundMe.sol\":198:1987  contract FundMe{... */\n      stop\n        /* \"FundMe.sol\":951:1651  function withdraw() public onlyOwner {... */\n    tag_3:\n      callvalue\n      dup1\n      iszero\n      tag_16\n      jumpi\n      0x00\n      dup1\n      revert\n    tag_16:\n      pop\n      tag_17\n      tag_18\n      jump\t// in\n    tag_17:\n      stop\n        /* \"FundMe.sol\":329:407  mapping (address funder => uint256 amountFunded) public  addressToAmountFunded */\n    tag_4:\n      callvalue\n      dup1\n      iszero\n      tag_19\n      jumpi\n      0x00\n      dup1\n      revert\n    tag_19:\n      pop\n      tag_20\n      0x04\n      dup1\n      calldatasize\n      sub\n      dup2\n      add\n      swap1\n      tag_21\n      swap2\n      swap1\n      tag_22\n      jump\t// in\n    tag_21:\n      tag_23\n      jump\t// in\n    tag_20:\n      mload(0x40)\n      tag_24\n      swap2\n      swap1\n      tag_25\n      jump\t// in\n    tag_24:\n      mload(0x40)\n      dup1\n      swap2\n      sub\n      swap1\n      return\n        /* \"FundMe.sol\":261:289  uint256 public minUsd = 5e18 */\n    tag_5:\n      callvalue\n      dup1\n      iszero\n      tag_26\n      jumpi\n      0x00\n      dup1\n      revert\n    tag_26:\n      pop\n      tag_27\n      tag_28\n      jump\t// in\n    tag_27:\n      mload(0x40)\n      tag_29\n      swap2\n      swap1\n      tag_25\n      jump\t// in\n    tag_29:\n      mload(0x40)\n      dup1\n      swap2\n      sub\n      swap1\n      return\n        /* \"FundMe.sol\":518:771  function fund() public payable {... */\n    tag_6:\n      tag_30\n      tag_12\n      jump\t// in\n    tag_30:\n      stop\n        /* \"FundMe.sol\":416:448  address public immutable i_owner */\n    tag_7:\n      callvalue\n      dup1\n      iszero\n      tag_31\n      jumpi\n      0x00\n      dup1\n      revert\n    tag_31:\n      pop\n      tag_32\n      tag_33\n      jump\t// in\n    tag_32:\n      mload(0x40)\n      tag_34\n      swap2\n      swap1\n      tag_35\n      jump\t// in\n    tag_34:\n      mload(0x40)\n      dup1\n      swap2\n      sub\n      swap1\n      return\n        /* \"FundMe.sol\":298:322  address[] public funders */\n    tag_8:\n      callvalue\n      dup1\n      iszero\n      tag_36\n      jumpi\n      0x00\n      dup1\n      revert\n    tag_36:\n      pop\n      tag_37\n      0x04\n      dup1\n      calldatasize\n      sub\n      dup2\n      add\n      swap1\n      tag_38\n      swap2\n      swap1\n      tag_39\n      jump\t// in\n    tag_38:\n      tag_40\n      jump\t// in\n    tag_37:\n      mload(0x40)\n      tag_41\n      swap2\n      swap1\n      tag_35\n      jump\t// in\n    tag_41:\n      mload(0x40)\n      dup1\n      swap2\n      sub\n      swap1\n      return\n        /* \"FundMe.sol\":518:771  function fund() public payable {... */\n    tag_12:\n        /* \"FundMe.sol\":601:607  minUsd */\n      sload(0x00)\n        /* \"FundMe.sol\":568:597  msg.value.getConversionRate() */\n      tag_43\n        /* \"FundMe.sol\":568:577  msg.value */\n      callvalue\n        /* \"FundMe.sol\":568:595  msg.value.getConversionRate */\n      tag_44\n        /* \"FundMe.sol\":568:597  msg.value.getConversionRate() */\n      jump\t// in\n    tag_43:\n        /* \"FundMe.sol\":568:607  msg.value.getConversionRate() >= minUsd */\n      lt\n      iszero\n        /* \"FundMe.sol\":560:632  require(msg.value.getConversionRate() >= minUsd, \"Eth sent is too low\" ) */\n      tag_45\n      jumpi\n      mload(0x40)\n      0x08c379a000000000000000000000000000000000000000000000000000000000\n      dup2\n      mstore\n      0x04\n      add\n      tag_46\n      swap1\n      tag_47\n      jump\t// in\n    tag_46:\n      mload(0x40)\n      dup1\n      swap2\n      sub\n      swap1\n      revert\n    tag_45:\n        /* \"FundMe.sol\":646:653  funders */\n      0x01\n        /* \"FundMe.sol\":659:669  msg.sender */\n      caller\n        /* \"FundMe.sol\":646:670  funders.push(msg.sender) */\n      swap1\n      dup1\n      0x01\n      dup2\n      sload\n      add\n      dup1\n      dup3\n      sstore\n      dup1\n      swap2\n      pop\n      pop\n      0x01\n      swap1\n      sub\n      swap1\n      0x00\n      mstore\n      keccak256(0x00, 0x20)\n      add\n      0x00\n      swap1\n      swap2\n      swap1\n      swap2\n      swap1\n      swap2\n      0x0100\n      exp\n      dup2\n      sload\n      dup2\n      0xffffffffffffffffffffffffffffffffffffffff\n      mul\n      not\n      and\n      swap1\n      dup4\n      0xffffffffffffffffffffffffffffffffffffffff\n      and\n      mul\n      or\n      swap1\n      sstore\n      pop\n        /* \"FundMe.sol\":754:763  msg.value */\n      callvalue\n        /* \"FundMe.sol\":718:739  addressToAmountFunded */\n      0x02\n        /* \"FundMe.sol\":718:751  addressToAmountFunded[msg.sender] */\n      0x00\n        /* \"FundMe.sol\":740:750  msg.sender */\n      caller\n        /* \"FundMe.sol\":718:751  addressToAmountFunded[msg.sender] */\n      0xffffffffffffffffffffffffffffffffffffffff\n      and\n      0xffffffffffffffffffffffffffffffffffffffff\n      and\n      dup2\n      mstore\n      0x20\n      add\n      swap1\n      dup2\n      mstore\n      0x20\n      add\n      0x00\n      keccak256\n      sload\n        /* \"FundMe.sol\":718:763  addressToAmountFunded[msg.sender] + msg.value */\n      tag_49\n      swap2\n      swap1\n      tag_50\n      jump\t// in\n    tag_49:\n        /* \"FundMe.sol\":682:703  addressToAmountFunded */\n      0x02\n        /* \"FundMe.sol\":682:715  addressToAmountFunded[msg.sender] */\n      0x00\n        /* \"FundMe.sol\":704:714  msg.sender */\n      caller\n        /* \"FundMe.sol\":682:715  addressToAmountFunded[msg.sender] */\n      0xffffffffffffffffffffffffffffffffffffffff\n      and\n      0xffffffffffffffffffffffffffffffffffffffff\n      and\n      dup2\n      mstore\n      0x20\n      add\n      swap1\n      dup2\n      mstore\n      0x20\n      add\n      0x00\n      keccak256\n        /* \"FundMe.sol\":682:763  addressToAmountFunded[msg.sender] = addressToAmountFunded[msg.sender] + msg.value */\n      dup2\n      swap1\n      sstore\n      pop\n        /* \"FundMe.sol\":518:771  function fund() public payable {... */\n      jump\t// out\n        /* \"FundMe.sol\":951:1651  function withdraw() public onlyOwner {... */\n    tag_18:\n        /* \"FundMe.sol\":1771:1778  i_owner */\n      immutable(\"0x35bb2e240092263378f77ea1e9c278099a33b604c4c4e26d13ea227e8bb74470\")\n        /* \"FundMe.sol\":1757:1778  msg.sender != i_owner */\n      0xffffffffffffffffffffffffffffffffffffffff\n      and\n        /* \"FundMe.sol\":1757:1767  msg.sender */\n      caller\n        /* \"FundMe.sol\":1757:1778  msg.sender != i_owner */\n      0xffffffffffffffffffffffffffffffffffffffff\n      and\n      eq\n        /* \"FundMe.sol\":1754:1800  if(msg.sender != i_owner){ revert NotOwner();} */\n      tag_52\n      jumpi\n        /* \"FundMe.sol\":1788:1798  NotOwner() */\n      mload(0x40)\n      0x30cd747100000000000000000000000000000000000000000000000000000000\n      dup2\n      mstore\n      0x04\n      add\n      mload(0x40)\n      dup1\n      swap2\n      sub\n      swap1\n      revert\n        /* \"FundMe.sol\":1754:1800  if(msg.sender != i_owner){ revert NotOwner();} */\n    tag_52:\n        /* \"FundMe.sol\":1065:1084  uint256 funderIndex */\n      0x00\n        /* \"FundMe.sol\":1061:1246  for(uint256 funderIndex = 0; funderIndex < funders.length; funderIndex++){... */\n    tag_54:\n        /* \"FundMe.sol\":1104:1111  funders */\n      0x01\n        /* \"FundMe.sol\":1104:1118  funders.length */\n      dup1\n      sload\n      swap1\n      pop\n        /* \"FundMe.sol\":1090:1101  funderIndex */\n      dup2\n        /* \"FundMe.sol\":1090:1118  funderIndex < funders.length */\n      lt\n        /* \"FundMe.sol\":1061:1246  for(uint256 funderIndex = 0; funderIndex < funders.length; funderIndex++){... */\n      iszero\n      tag_55\n      jumpi\n        /* \"FundMe.sol\":1149:1163  address funder */\n      0x00\n        /* \"FundMe.sol\":1166:1173  funders */\n      0x01\n        /* \"FundMe.sol\":1174:1185  funderIndex */\n      dup3\n        /* \"FundMe.sol\":1166:1186  funders[funderIndex] */\n      dup2\n      sload\n      dup2\n      lt\n      tag_57\n      jumpi\n      tag_58\n      tag_59\n      jump\t// in\n    tag_58:\n    tag_57:\n      swap1\n      0x00\n      mstore\n      keccak256(0x00, 0x20)\n      add\n      0x00\n      swap1\n      sload\n      swap1\n      0x0100\n      exp\n      swap1\n      div\n      0xffffffffffffffffffffffffffffffffffffffff\n      and\n        /* \"FundMe.sol\":1149:1186  address funder = funders[funderIndex] */\n      swap1\n      pop\n        /* \"FundMe.sol\":1233:1234  0 */\n      0x00\n        /* \"FundMe.sol\":1201:1222  addressToAmountFunded */\n      0x02\n        /* \"FundMe.sol\":1201:1230  addressToAmountFunded[funder] */\n      0x00\n        /* \"FundMe.sol\":1223:1229  funder */\n      dup4\n        /* \"FundMe.sol\":1201:1230  addressToAmountFunded[funder] */\n      0xffffffffffffffffffffffffffffffffffffffff\n      and\n      0xffffffffffffffffffffffffffffffffffffffff\n      and\n      dup2\n      mstore\n      0x20\n      add\n      swap1\n      dup2\n      mstore\n      0x20\n      add\n      0x00\n      keccak256\n        /* \"FundMe.sol\":1201:1234  addressToAmountFunded[funder] = 0 */\n      dup2\n      swap1\n      sstore\n      pop\n        /* \"FundMe.sol\":1134:1246  {... */\n      pop\n        /* \"FundMe.sol\":1120:1133  funderIndex++ */\n      dup1\n      dup1\n      0x01\n      add\n      swap2\n      pop\n      pop\n        /* \"FundMe.sol\":1061:1246  for(uint256 funderIndex = 0; funderIndex < funders.length; funderIndex++){... */\n      jump(tag_54)\n    tag_55:\n      pop\n        /* \"FundMe.sol\":1514:1530  bool callSuccess */\n      0x00\n        /* \"FundMe.sol\":1545:1555  msg.sender */\n      caller\n        /* \"FundMe.sol\":1537:1561  payable(msg.sender).call */\n      0xffffffffffffffffffffffffffffffffffffffff\n      and\n        /* \"FundMe.sol\":1569:1590  address(this).balance */\n      selfbalance\n        /* \"FundMe.sol\":1537:1597  payable(msg.sender).call{value: address(this).balance  }(\"\") */\n      mload(0x40)\n      tag_61\n      swap1\n      tag_62\n      jump\t// in\n    tag_61:\n      0x00\n      mload(0x40)\n      dup1\n      dup4\n      sub\n      dup2\n      dup6\n      dup8\n      gas\n      call\n      swap3\n      pop\n      pop\n      pop\n      returndatasize\n      dup1\n      0x00\n      dup2\n      eq\n      tag_65\n      jumpi\n      mload(0x40)\n      swap2\n      pop\n      and(add(returndatasize, 0x3f), not(0x1f))\n      dup3\n      add\n      0x40\n      mstore\n      returndatasize\n      dup3\n      mstore\n      returndatasize\n      0x00\n      0x20\n      dup5\n      add\n      returndatacopy\n      jump(tag_64)\n    tag_65:\n      0x60\n      swap2\n      pop\n    tag_64:\n      pop\n        /* \"FundMe.sol\":1513:1597  (bool callSuccess,  ) = payable(msg.sender).call{value: address(this).balance  }(\"\") */\n      pop\n      swap1\n      pop\n        /* \"FundMe.sol\":1616:1627  callSuccess */\n      dup1\n        /* \"FundMe.sol\":1608:1643  require(callSuccess, \"Call failed\") */\n      tag_66\n      jumpi\n      mload(0x40)\n      0x08c379a000000000000000000000000000000000000000000000000000000000\n      dup2\n      mstore\n      0x04\n      add\n      tag_67\n      swap1\n      tag_68\n      jump\t// in\n    tag_67:\n      mload(0x40)\n      dup1\n      swap2\n      sub\n      swap1\n      revert\n    tag_66:\n        /* \"FundMe.sol\":988:1651  {... */\n      pop\n        /* \"FundMe.sol\":951:1651  function withdraw() public onlyOwner {... */\n      jump\t// out\n        /* \"FundMe.sol\":329:407  mapping (address funder => uint256 amountFunded) public  addressToAmountFunded */\n    tag_23:\n      mstore(0x20, 0x02)\n      dup1\n      0x00\n      mstore\n      keccak256(0x00, 0x40)\n      0x00\n      swap2\n      pop\n      swap1\n      pop\n      sload\n      dup2\n      jump\t// out\n        /* \"FundMe.sol\":261:289  uint256 public minUsd = 5e18 */\n    tag_28:\n      sload(0x00)\n      dup2\n      jump\t// out\n        /* \"FundMe.sol\":416:448  address public immutable i_owner */\n    tag_33:\n      immutable(\"0x35bb2e240092263378f77ea1e9c278099a33b604c4c4e26d13ea227e8bb74470\")\n      dup2\n      jump\t// out\n        /* \"FundMe.sol\":298:322  address[] public funders */\n    tag_40:\n      0x01\n      dup2\n      dup2\n      sload\n      dup2\n      lt\n      tag_69\n      jumpi\n      0x00\n      dup1\n      revert\n    tag_69:\n      swap1\n      0x00\n      mstore\n      keccak256(0x00, 0x20)\n      add\n      0x00\n      swap2\n      pop\n      sload\n      swap1\n      0x0100\n      exp\n      swap1\n      div\n      0xffffffffffffffffffffffffffffffffffffffff\n      and\n      dup2\n      jump\t// out\n        /* \"PriceConverter.sol\":505:729  function getConversionRate(uint256 ethAmount) internal view returns (uint256) {  ... */\n    tag_44:\n        /* \"PriceConverter.sol\":574:581  uint256 */\n      0x00\n        /* \"PriceConverter.sol\":596:612  uint256 ethPrice */\n      dup1\n        /* \"PriceConverter.sol\":615:625  getPrice() */\n      tag_72\n        /* \"PriceConverter.sol\":615:623  getPrice */\n      tag_73\n        /* \"PriceConverter.sol\":615:625  getPrice() */\n      jump\t// in\n    tag_72:\n        /* \"PriceConverter.sol\":596:625  uint256 ethPrice = getPrice() */\n      swap1\n      pop\n        /* \"PriceConverter.sol\":636:658  uint256 ethAmountInUsd */\n      0x00\n        /* \"PriceConverter.sol\":685:689  1e18 */\n      0x0de0b6b3a7640000\n        /* \"PriceConverter.sol\":673:682  ethAmount */\n      dup5\n        /* \"PriceConverter.sol\":662:670  ethPrice */\n      dup4\n        /* \"PriceConverter.sol\":662:682  ethPrice * ethAmount */\n      tag_74\n      swap2\n      swap1\n      tag_75\n      jump\t// in\n    tag_74:\n        /* \"PriceConverter.sol\":661:689  (ethPrice * ethAmount)/ 1e18 */\n      tag_76\n      swap2\n      swap1\n      tag_77\n      jump\t// in\n    tag_76:\n        /* \"PriceConverter.sol\":636:689  uint256 ethAmountInUsd = (ethPrice * ethAmount)/ 1e18 */\n      swap1\n      pop\n        /* \"PriceConverter.sol\":707:721  ethAmountInUsd */\n      dup1\n        /* \"PriceConverter.sol\":700:721  return ethAmountInUsd */\n      swap3\n      pop\n      pop\n      pop\n        /* \"PriceConverter.sol\":505:729  function getConversionRate(uint256 ethAmount) internal view returns (uint256) {  ... */\n      swap2\n      swap1\n      pop\n      jump\t// out\n        /* \"PriceConverter.sol\":224:497  function getPrice() internal view returns (uint256) {... */\n    tag_73:\n        /* \"PriceConverter.sol\":267:274  uint256 */\n      0x00\n        /* \"PriceConverter.sol\":287:318  AggregatorV3Interface priceFeed */\n      dup1\n        /* \"PriceConverter.sol\":343:385  0x694AA1769357215DE4FAC081bf1f309aDC325306 */\n      0x694aa1769357215de4fac081bf1f309adc325306\n        /* \"PriceConverter.sol\":287:386  AggregatorV3Interface priceFeed = AggregatorV3Interface(0x694AA1769357215DE4FAC081bf1f309aDC325306) */\n      swap1\n      pop\n        /* \"PriceConverter.sol\":400:413  int256 answer */\n      0x00\n        /* \"PriceConverter.sol\":420:429  priceFeed */\n      dup2\n        /* \"PriceConverter.sol\":420:445  priceFeed.latestRoundData */\n      0xffffffffffffffffffffffffffffffffffffffff\n      and\n      0xfeaf968c\n        /* \"PriceConverter.sol\":420:447  priceFeed.latestRoundData() */\n      mload(0x40)\n      dup2\n      0xffffffff\n      and\n      0xe0\n      shl\n      dup2\n      mstore\n      0x04\n      add\n      0xa0\n      mload(0x40)\n      dup1\n      dup4\n      sub\n      dup2\n      dup7\n      gas\n      staticcall\n      iszero\n      dup1\n      iszero\n      tag_80\n      jumpi\n      returndatasize\n      0x00\n      dup1\n      returndatacopy\n      revert(0x00, returndatasize)\n    tag_80:\n      pop\n      pop\n      pop\n      pop\n      mload(0x40)\n      returndatasize\n      not(0x1f)\n      0x1f\n      dup3\n      add\n      and\n      dup3\n      add\n      dup1\n      0x40\n      mstore\n      pop\n      dup2\n      add\n      swap1\n      tag_81\n      swap2\n      swap1\n      tag_82\n      jump\t// in\n    tag_81:\n        /* \"PriceConverter.sol\":397:447  (, int256 answer,,,) = priceFeed.latestRoundData() */\n      pop\n      pop\n      pop\n      swap2\n      pop\n      pop\n        /* \"PriceConverter.sol\":485:489  1e10 */\n      0x02540be400\n        /* \"PriceConverter.sol\":475:481  answer */\n      dup2\n        /* \"PriceConverter.sol\":467:489  uint256(answer) * 1e10 */\n      tag_83\n      swap2\n      swap1\n      tag_75\n      jump\t// in\n    tag_83:\n        /* \"PriceConverter.sol\":460:489  return uint256(answer) * 1e10 */\n      swap3\n      pop\n      pop\n      pop\n        /* \"PriceConverter.sol\":224:497  function getPrice() internal view returns (uint256) {... */\n      swap1\n      jump\t// out\n        /* \"#utility.yul\":88:205   */\n    tag_85:\n        /* \"#utility.yul\":197:198   */\n      0x00\n        /* \"#utility.yul\":194:195   */\n      dup1\n        /* \"#utility.yul\":187:199   */\n      revert\n        /* \"#utility.yul\":334:460   */\n    tag_87:\n        /* \"#utility.yul\":371:378   */\n      0x00\n        /* \"#utility.yul\":411:453   */\n      0xffffffffffffffffffffffffffffffffffffffff\n        /* \"#utility.yul\":404:409   */\n      dup3\n        /* \"#utility.yul\":400:454   */\n      and\n        /* \"#utility.yul\":389:454   */\n      swap1\n      pop\n        /* \"#utility.yul\":334:460   */\n      swap2\n      swap1\n      pop\n      jump\t// out\n        /* \"#utility.yul\":466:562   */\n    tag_88:\n        /* \"#utility.yul\":503:510   */\n      0x00\n        /* \"#utility.yul\":532:556   */\n      tag_119\n        /* \"#utility.yul\":550:555   */\n      dup3\n        /* \"#utility.yul\":532:556   */\n      tag_87\n      jump\t// in\n    tag_119:\n        /* \"#utility.yul\":521:556   */\n      swap1\n      pop\n        /* \"#utility.yul\":466:562   */\n      swap2\n      swap1\n      pop\n      jump\t// out\n        /* \"#utility.yul\":568:690   */\n    tag_89:\n        /* \"#utility.yul\":641:665   */\n      tag_121\n        /* \"#utility.yul\":659:664   */\n      dup2\n        /* \"#utility.yul\":641:665   */\n      tag_88\n      jump\t// in\n    tag_121:\n        /* \"#utility.yul\":634:639   */\n      dup2\n        /* \"#utility.yul\":631:666   */\n      eq\n        /* \"#utility.yul\":621:684   */\n      tag_122\n      jumpi\n        /* \"#utility.yul\":680:681   */\n      0x00\n        /* \"#utility.yul\":677:678   */\n      dup1\n        /* \"#utility.yul\":670:682   */\n      revert\n        /* \"#utility.yul\":621:684   */\n    tag_122:\n        /* \"#utility.yul\":568:690   */\n      pop\n      jump\t// out\n        /* \"#utility.yul\":696:835   */\n    tag_90:\n        /* \"#utility.yul\":742:747   */\n      0x00\n        /* \"#utility.yul\":780:786   */\n      dup2\n        /* \"#utility.yul\":767:787   */\n      calldataload\n        /* \"#utility.yul\":758:787   */\n      swap1\n      pop\n        /* \"#utility.yul\":796:829   */\n      tag_124\n        /* \"#utility.yul\":823:828   */\n      dup2\n        /* \"#utility.yul\":796:829   */\n      tag_89\n      jump\t// in\n    tag_124:\n        /* \"#utility.yul\":696:835   */\n      swap3\n      swap2\n      pop\n      pop\n      jump\t// out\n        /* \"#utility.yul\":841:1170   */\n    tag_22:\n        /* \"#utility.yul\":900:906   */\n      0x00\n        /* \"#utility.yul\":949:951   */\n      0x20\n        /* \"#utility.yul\":937:946   */\n      dup3\n        /* \"#utility.yul\":928:935   */\n      dup5\n        /* \"#utility.yul\":924:947   */\n      sub\n        /* \"#utility.yul\":920:952   */\n      slt\n        /* \"#utility.yul\":917:1036   */\n      iszero\n      tag_126\n      jumpi\n        /* \"#utility.yul\":955:1034   */\n      tag_127\n      tag_85\n      jump\t// in\n    tag_127:\n        /* \"#utility.yul\":917:1036   */\n    tag_126:\n        /* \"#utility.yul\":1075:1076   */\n      0x00\n        /* \"#utility.yul\":1100:1153   */\n      tag_128\n        /* \"#utility.yul\":1145:1152   */\n      dup5\n        /* \"#utility.yul\":1136:1142   */\n      dup3\n        /* \"#utility.yul\":1125:1134   */\n      dup6\n        /* \"#utility.yul\":1121:1143   */\n      add\n        /* \"#utility.yul\":1100:1153   */\n      tag_90\n      jump\t// in\n    tag_128:\n        /* \"#utility.yul\":1090:1153   */\n      swap2\n      pop\n        /* \"#utility.yul\":1046:1163   */\n      pop\n        /* \"#utility.yul\":841:1170   */\n      swap3\n      swap2\n      pop\n      pop\n      jump\t// out\n        /* \"#utility.yul\":1176:1253   */\n    tag_91:\n        /* \"#utility.yul\":1213:1220   */\n      0x00\n        /* \"#utility.yul\":1242:1247   */\n      dup2\n        /* \"#utility.yul\":1231:1247   */\n      swap1\n      pop\n        /* \"#utility.yul\":1176:1253   */\n      swap2\n      swap1\n      pop\n      jump\t// out\n        /* \"#utility.yul\":1259:1377   */\n    tag_92:\n        /* \"#utility.yul\":1346:1370   */\n      tag_131\n        /* \"#utility.yul\":1364:1369   */\n      dup2\n        /* \"#utility.yul\":1346:1370   */\n      tag_91\n      jump\t// in\n    tag_131:\n        /* \"#utility.yul\":1341:1344   */\n      dup3\n        /* \"#utility.yul\":1334:1371   */\n      mstore\n        /* \"#utility.yul\":1259:1377   */\n      pop\n      pop\n      jump\t// out\n        /* \"#utility.yul\":1383:1605   */\n    tag_25:\n        /* \"#utility.yul\":1476:1480   */\n      0x00\n        /* \"#utility.yul\":1514:1516   */\n      0x20\n        /* \"#utility.yul\":1503:1512   */\n      dup3\n        /* \"#utility.yul\":1499:1517   */\n      add\n        /* \"#utility.yul\":1491:1517   */\n      swap1\n      pop\n        /* \"#utility.yul\":1527:1598   */\n      tag_133\n        /* \"#utility.yul\":1595:1596   */\n      0x00\n        /* \"#utility.yul\":1584:1593   */\n      dup4\n        /* \"#utility.yul\":1580:1597   */\n      add\n        /* \"#utility.yul\":1571:1577   */\n      dup5\n        /* \"#utility.yul\":1527:1598   */\n      tag_92\n      jump\t// in\n    tag_133:\n        /* \"#utility.yul\":1383:1605   */\n      swap3\n      swap2\n      pop\n      pop\n      jump\t// out\n        /* \"#utility.yul\":1611:1729   */\n    tag_93:\n        /* \"#utility.yul\":1698:1722   */\n      tag_135\n        /* \"#utility.yul\":1716:1721   */\n      dup2\n        /* \"#utility.yul\":1698:1722   */\n      tag_88\n      jump\t// in\n    tag_135:\n        /* \"#utility.yul\":1693:1696   */\n      dup3\n        /* \"#utility.yul\":1686:1723   */\n      mstore\n        /* \"#utility.yul\":1611:1729   */\n      pop\n      pop\n      jump\t// out\n        /* \"#utility.yul\":1735:1957   */\n    tag_35:\n        /* \"#utility.yul\":1828:1832   */\n      0x00\n        /* \"#utility.yul\":1866:1868   */\n      0x20\n        /* \"#utility.yul\":1855:1864   */\n      dup3\n        /* \"#utility.yul\":1851:1869   */\n      add\n        /* \"#utility.yul\":1843:1869   */\n      swap1\n      pop\n        /* \"#utility.yul\":1879:1950   */\n      tag_137\n        /* \"#utility.yul\":1947:1948   */\n      0x00\n        /* \"#utility.yul\":1936:1945   */\n      dup4\n        /* \"#utility.yul\":1932:1949   */\n      add\n        /* \"#utility.yul\":1923:1929   */\n      dup5\n        /* \"#utility.yul\":1879:1950   */\n      tag_93\n      jump\t// in\n    tag_137:\n        /* \"#utility.yul\":1735:1957   */\n      swap3\n      swap2\n      pop\n      pop\n      jump\t// out\n        /* \"#utility.yul\":1963:2085   */\n    tag_94:\n        /* \"#utility.yul\":2036:2060   */\n      tag_139\n        /* \"#utility.yul\":2054:2059   */\n      dup2\n        /* \"#utility.yul\":2036:2060   */\n      tag_91\n      jump\t// in\n    tag_139:\n        /* \"#utility.yul\":2029:2034   */\n      dup2\n        /* \"#utility.yul\":2026:2061   */\n      eq\n        /* \"#utility.yul\":2016:2079   */\n      tag_140\n      jumpi\n        /* \"#utility.yul\":2075:2076   */\n      0x00\n        /* \"#utility.yul\":2072:2073   */\n      dup1\n        /* \"#utility.yul\":2065:2077   */\n      revert\n        /* \"#utility.yul\":2016:2079   */\n    tag_140:\n        /* \"#utility.yul\":1963:2085   */\n      pop\n      jump\t// out\n        /* \"#utility.yul\":2091:2230   */\n    tag_95:\n        /* \"#utility.yul\":2137:2142   */\n      0x00\n        /* \"#utility.yul\":2175:2181   */\n      dup2\n        /* \"#utility.yul\":2162:2182   */\n      calldataload\n        /* \"#utility.yul\":2153:2182   */\n      swap1\n      pop\n        /* \"#utility.yul\":2191:2224   */\n      tag_142\n        /* \"#utility.yul\":2218:2223   */\n      dup2\n        /* \"#utility.yul\":2191:2224   */\n      tag_94\n      jump\t// in\n    tag_142:\n        /* \"#utility.yul\":2091:2230   */\n      swap3\n      swap2\n      pop\n      pop\n      jump\t// out\n        /* \"#utility.yul\":2236:2565   */\n    tag_39:\n        /* \"#utility.yul\":2295:2301   */\n      0x00\n        /* \"#utility.yul\":2344:2346   */\n      0x20\n        /* \"#utility.yul\":2332:2341   */\n      dup3\n        /* \"#utility.yul\":2323:2330   */\n      dup5\n        /* \"#utility.yul\":2319:2342   */\n      sub\n        /* \"#utility.yul\":2315:2347   */\n      slt\n        /* \"#utility.yul\":2312:2431   */\n      iszero\n      tag_144\n      jumpi\n        /* \"#utility.yul\":2350:2429   */\n      tag_145\n      tag_85\n      jump\t// in\n    tag_145:\n        /* \"#utility.yul\":2312:2431   */\n    tag_144:\n        /* \"#utility.yul\":2470:2471   */\n      0x00\n        /* \"#utility.yul\":2495:2548   */\n      tag_146\n        /* \"#utility.yul\":2540:2547   */\n      dup5\n        /* \"#utility.yul\":2531:2537   */\n      dup3\n        /* \"#utility.yul\":2520:2529   */\n      dup6\n        /* \"#utility.yul\":2516:2538   */\n      add\n        /* \"#utility.yul\":2495:2548   */\n      tag_95\n      jump\t// in\n    tag_146:\n        /* \"#utility.yul\":2485:2548   */\n      swap2\n      pop\n        /* \"#utility.yul\":2441:2558   */\n      pop\n        /* \"#utility.yul\":2236:2565   */\n      swap3\n      swap2\n      pop\n      pop\n      jump\t// out\n        /* \"#utility.yul\":2571:2740   */\n    tag_96:\n        /* \"#utility.yul\":2655:2666   */\n      0x00\n        /* \"#utility.yul\":2689:2695   */\n      dup3\n        /* \"#utility.yul\":2684:2687   */\n      dup3\n        /* \"#utility.yul\":2677:2696   */\n      mstore\n        /* \"#utility.yul\":2729:2733   */\n      0x20\n        /* \"#utility.yul\":2724:2727   */\n      dup3\n        /* \"#utility.yul\":2720:2734   */\n      add\n        /* \"#utility.yul\":2705:2734   */\n      swap1\n      pop\n        /* \"#utility.yul\":2571:2740   */\n      swap3\n      swap2\n      pop\n      pop\n      jump\t// out\n        /* \"#utility.yul\":2746:2915   */\n    tag_97:\n        /* \"#utility.yul\":2886:2907   */\n      0x4574682073656e7420697320746f6f206c6f7700000000000000000000000000\n        /* \"#utility.yul\":2882:2883   */\n      0x00\n        /* \"#utility.yul\":2874:2880   */\n      dup3\n        /* \"#utility.yul\":2870:2884   */\n      add\n        /* \"#utility.yul\":2863:2908   */\n      mstore\n        /* \"#utility.yul\":2746:2915   */\n      pop\n      jump\t// out\n        /* \"#utility.yul\":2921:3287   */\n    tag_98:\n        /* \"#utility.yul\":3063:3066   */\n      0x00\n        /* \"#utility.yul\":3084:3151   */\n      tag_150\n        /* \"#utility.yul\":3148:3150   */\n      0x13\n        /* \"#utility.yul\":3143:3146   */\n      dup4\n        /* \"#utility.yul\":3084:3151   */\n      tag_96\n      jump\t// in\n    tag_150:\n        /* \"#utility.yul\":3077:3151   */\n      swap2\n      pop\n        /* \"#utility.yul\":3160:3253   */\n      tag_151\n        /* \"#utility.yul\":3249:3252   */\n      dup3\n        /* \"#utility.yul\":3160:3253   */\n      tag_97\n      jump\t// in\n    tag_151:\n        /* \"#utility.yul\":3278:3280   */\n      0x20\n        /* \"#utility.yul\":3273:3276   */\n      dup3\n        /* \"#utility.yul\":3269:3281   */\n      add\n        /* \"#utility.yul\":3262:3281   */\n      swap1\n      pop\n        /* \"#utility.yul\":2921:3287   */\n      swap2\n      swap1\n      pop\n      jump\t// out\n        /* \"#utility.yul\":3293:3712   */\n    tag_47:\n        /* \"#utility.yul\":3459:3463   */\n      0x00\n        /* \"#utility.yul\":3497:3499   */\n      0x20\n        /* \"#utility.yul\":3486:3495   */\n      dup3\n        /* \"#utility.yul\":3482:3500   */\n      add\n        /* \"#utility.yul\":3474:3500   */\n      swap1\n      pop\n        /* \"#utility.yul\":3546:3555   */\n      dup2\n        /* \"#utility.yul\":3540:3544   */\n      dup2\n        /* \"#utility.yul\":3536:3556   */\n      sub\n        /* \"#utility.yul\":3532:3533   */\n      0x00\n        /* \"#utility.yul\":3521:3530   */\n      dup4\n        /* \"#utility.yul\":3517:3534   */\n      add\n        /* \"#utility.yul\":3510:3557   */\n      mstore\n        /* \"#utility.yul\":3574:3705   */\n      tag_153\n        /* \"#utility.yul\":3700:3704   */\n      dup2\n        /* \"#utility.yul\":3574:3705   */\n      tag_98\n      jump\t// in\n    tag_153:\n        /* \"#utility.yul\":3566:3705   */\n      swap1\n      pop\n        /* \"#utility.yul\":3293:3712   */\n      swap2\n      swap1\n      pop\n      jump\t// out\n        /* \"#utility.yul\":3718:3898   */\n    tag_99:\n        /* \"#utility.yul\":3766:3843   */\n      0x4e487b7100000000000000000000000000000000000000000000000000000000\n        /* \"#utility.yul\":3763:3764   */\n      0x00\n        /* \"#utility.yul\":3756:3844   */\n      mstore\n        /* \"#utility.yul\":3863:3867   */\n      0x11\n        /* \"#utility.yul\":3860:3861   */\n      0x04\n        /* \"#utility.yul\":3853:3868   */\n      mstore\n        /* \"#utility.yul\":3887:3891   */\n      0x24\n        /* \"#utility.yul\":3884:3885   */\n      0x00\n        /* \"#utility.yul\":3877:3892   */\n      revert\n        /* \"#utility.yul\":3904:4095   */\n    tag_50:\n        /* \"#utility.yul\":3944:3947   */\n      0x00\n        /* \"#utility.yul\":3963:3983   */\n      tag_156\n        /* \"#utility.yul\":3981:3982   */\n      dup3\n        /* \"#utility.yul\":3963:3983   */\n      tag_91\n      jump\t// in\n    tag_156:\n        /* \"#utility.yul\":3958:3983   */\n      swap2\n      pop\n        /* \"#utility.yul\":3997:4017   */\n      tag_157\n        /* \"#utility.yul\":4015:4016   */\n      dup4\n        /* \"#utility.yul\":3997:4017   */\n      tag_91\n      jump\t// in\n    tag_157:\n        /* \"#utility.yul\":3992:4017   */\n      swap3\n      pop\n        /* \"#utility.yul\":4040:4041   */\n      dup3\n        /* \"#utility.yul\":4037:4038   */\n      dup3\n        /* \"#utility.yul\":4033:4042   */\n      add\n        /* \"#utility.yul\":4026:4042   */\n      swap1\n      pop\n        /* \"#utility.yul\":4061:4064   */\n      dup1\n        /* \"#utility.yul\":4058:4059   */\n      dup3\n        /* \"#utility.yul\":4055:4065   */\n      gt\n        /* \"#utility.yul\":4052:4088   */\n      iszero\n      tag_158\n      jumpi\n        /* \"#utility.yul\":4068:4086   */\n      tag_159\n      tag_99\n      jump\t// in\n    tag_159:\n        /* \"#utility.yul\":4052:4088   */\n    tag_158:\n        /* \"#utility.yul\":3904:4095   */\n      swap3\n      swap2\n      pop\n      pop\n      jump\t// out\n        /* \"#utility.yul\":4101:4281   */\n    tag_59:\n        /* \"#utility.yul\":4149:4226   */\n      0x4e487b7100000000000000000000000000000000000000000000000000000000\n        /* \"#utility.yul\":4146:4147   */\n      0x00\n        /* \"#utility.yul\":4139:4227   */\n      mstore\n        /* \"#utility.yul\":4246:4250   */\n      0x32\n        /* \"#utility.yul\":4243:4244   */\n      0x04\n        /* \"#utility.yul\":4236:4251   */\n      mstore\n        /* \"#utility.yul\":4270:4274   */\n      0x24\n        /* \"#utility.yul\":4267:4268   */\n      0x00\n        /* \"#utility.yul\":4260:4275   */\n      revert\n        /* \"#utility.yul\":4287:4434   */\n    tag_100:\n        /* \"#utility.yul\":4388:4399   */\n      0x00\n        /* \"#utility.yul\":4425:4428   */\n      dup2\n        /* \"#utility.yul\":4410:4428   */\n      swap1\n      pop\n        /* \"#utility.yul\":4287:4434   */\n      swap3\n      swap2\n      pop\n      pop\n      jump\t// out\n        /* \"#utility.yul\":4440:4554   */\n    tag_101:\n      pop\n      jump\t// out\n        /* \"#utility.yul\":4560:4958   */\n    tag_102:\n        /* \"#utility.yul\":4719:4722   */\n      0x00\n        /* \"#utility.yul\":4740:4823   */\n      tag_164\n        /* \"#utility.yul\":4821:4822   */\n      0x00\n        /* \"#utility.yul\":4816:4819   */\n      dup4\n        /* \"#utility.yul\":4740:4823   */\n      tag_100\n      jump\t// in\n    tag_164:\n        /* \"#utility.yul\":4733:4823   */\n      swap2\n      pop\n        /* \"#utility.yul\":4832:4925   */\n      tag_165\n        /* \"#utility.yul\":4921:4924   */\n      dup3\n        /* \"#utility.yul\":4832:4925   */\n      tag_101\n      jump\t// in\n    tag_165:\n        /* \"#utility.yul\":4950:4951   */\n      0x00\n        /* \"#utility.yul\":4945:4948   */\n      dup3\n        /* \"#utility.yul\":4941:4952   */\n      add\n        /* \"#utility.yul\":4934:4952   */\n      swap1\n      pop\n        /* \"#utility.yul\":4560:4958   */\n      swap2\n      swap1\n      pop\n      jump\t// out\n        /* \"#utility.yul\":4964:5343   */\n    tag_62:\n        /* \"#utility.yul\":5148:5151   */\n      0x00\n        /* \"#utility.yul\":5170:5317   */\n      tag_167\n        /* \"#utility.yul\":5313:5316   */\n      dup3\n        /* \"#utility.yul\":5170:5317   */\n      tag_102\n      jump\t// in\n    tag_167:\n        /* \"#utility.yul\":5163:5317   */\n      swap2\n      pop\n        /* \"#utility.yul\":5334:5337   */\n      dup2\n        /* \"#utility.yul\":5327:5337   */\n      swap1\n      pop\n        /* \"#utility.yul\":4964:5343   */\n      swap2\n      swap1\n      pop\n      jump\t// out\n        /* \"#utility.yul\":5349:5510   */\n    tag_103:\n        /* \"#utility.yul\":5489:5502   */\n      0x43616c6c206661696c6564000000000000000000000000000000000000000000\n        /* \"#utility.yul\":5485:5486   */\n      0x00\n        /* \"#utility.yul\":5477:5483   */\n      dup3\n        /* \"#utility.yul\":5473:5487   */\n      add\n        /* \"#utility.yul\":5466:5503   */\n      mstore\n        /* \"#utility.yul\":5349:5510   */\n      pop\n      jump\t// out\n        /* \"#utility.yul\":5516:5882   */\n    tag_104:\n        /* \"#utility.yul\":5658:5661   */\n      0x00\n        /* \"#utility.yul\":5679:5746   */\n      tag_170\n        /* \"#utility.yul\":5743:5745   */\n      0x0b\n        /* \"#utility.yul\":5738:5741   */\n      dup4\n        /* \"#utility.yul\":5679:5746   */\n      tag_96\n      jump\t// in\n    tag_170:\n        /* \"#utility.yul\":5672:5746   */\n      swap2\n      pop\n        /* \"#utility.yul\":5755:5848   */\n      tag_171\n        /* \"#utility.yul\":5844:5847   */\n      dup3\n        /* \"#utility.yul\":5755:5848   */\n      tag_103\n      jump\t// in\n    tag_171:\n        /* \"#utility.yul\":5873:5875   */\n      0x20\n        /* \"#utility.yul\":5868:5871   */\n      dup3\n        /* \"#utility.yul\":5864:5876   */\n      add\n        /* \"#utility.yul\":5857:5876   */\n      swap1\n      pop\n        /* \"#utility.yul\":5516:5882   */\n      swap2\n      swap1\n      pop\n      jump\t// out\n        /* \"#utility.yul\":5888:6307   */\n    tag_68:\n        /* \"#utility.yul\":6054:6058   */\n      0x00\n        /* \"#utility.yul\":6092:6094   */\n      0x20\n        /* \"#utility.yul\":6081:6090   */\n      dup3\n        /* \"#utility.yul\":6077:6095   */\n      add\n        /* \"#utility.yul\":6069:6095   */\n      swap1\n      pop\n        /* \"#utility.yul\":6141:6150   */\n      dup2\n        /* \"#utility.yul\":6135:6139   */\n      dup2\n        /* \"#utility.yul\":6131:6151   */\n      sub\n        /* \"#utility.yul\":6127:6128   */\n      0x00\n        /* \"#utility.yul\":6116:6125   */\n      dup4\n        /* \"#utility.yul\":6112:6129   */\n      add\n        /* \"#utility.yul\":6105:6152   */\n      mstore\n        /* \"#utility.yul\":6169:6300   */\n      tag_173\n        /* \"#utility.yul\":6295:6299   */\n      dup2\n        /* \"#utility.yul\":6169:6300   */\n      tag_104\n      jump\t// in\n    tag_173:\n        /* \"#utility.yul\":6161:6300   */\n      swap1\n      pop\n        /* \"#utility.yul\":5888:6307   */\n      swap2\n      swap1\n      pop\n      jump\t// out\n        /* \"#utility.yul\":6313:6723   */\n    tag_75:\n        /* \"#utility.yul\":6353:6360   */\n      0x00\n        /* \"#utility.yul\":6376:6396   */\n      tag_175\n        /* \"#utility.yul\":6394:6395   */\n      dup3\n        /* \"#utility.yul\":6376:6396   */\n      tag_91\n      jump\t// in\n    tag_175:\n        /* \"#utility.yul\":6371:6396   */\n      swap2\n      pop\n        /* \"#utility.yul\":6410:6430   */\n      tag_176\n        /* \"#utility.yul\":6428:6429   */\n      dup4\n        /* \"#utility.yul\":6410:6430   */\n      tag_91\n      jump\t// in\n    tag_176:\n        /* \"#utility.yul\":6405:6430   */\n      swap3\n      pop\n        /* \"#utility.yul\":6465:6466   */\n      dup3\n        /* \"#utility.yul\":6462:6463   */\n      dup3\n        /* \"#utility.yul\":6458:6467   */\n      mul\n        /* \"#utility.yul\":6487:6517   */\n      tag_177\n        /* \"#utility.yul\":6505:6516   */\n      dup2\n        /* \"#utility.yul\":6487:6517   */\n      tag_91\n      jump\t// in\n    tag_177:\n        /* \"#utility.yul\":6476:6517   */\n      swap2\n      pop\n        /* \"#utility.yul\":6666:6667   */\n      dup3\n        /* \"#utility.yul\":6657:6664   */\n      dup3\n        /* \"#utility.yul\":6653:6668   */\n      div\n        /* \"#utility.yul\":6650:6651   */\n      dup5\n        /* \"#utility.yul\":6647:6669   */\n      eq\n        /* \"#utility.yul\":6627:6628   */\n      dup4\n        /* \"#utility.yul\":6620:6629   */\n      iszero\n        /* \"#utility.yul\":6600:6683   */\n      or\n        /* \"#utility.yul\":6577:6716   */\n      tag_178\n      jumpi\n        /* \"#utility.yul\":6696:6714   */\n      tag_179\n      tag_99\n      jump\t// in\n    tag_179:\n        /* \"#utility.yul\":6577:6716   */\n    tag_178:\n        /* \"#utility.yul\":6361:6723   */\n      pop\n        /* \"#utility.yul\":6313:6723   */\n      swap3\n      swap2\n      pop\n      pop\n      jump\t// out\n        /* \"#utility.yul\":6729:6909   */\n    tag_105:\n        /* \"#utility.yul\":6777:6854   */\n      0x4e487b7100000000000000000000000000000000000000000000000000000000\n        /* \"#utility.yul\":6774:6775   */\n      0x00\n        /* \"#utility.yul\":6767:6855   */\n      mstore\n        /* \"#utility.yul\":6874:6878   */\n      0x12\n        /* \"#utility.yul\":6871:6872   */\n      0x04\n        /* \"#utility.yul\":6864:6879   */\n      mstore\n        /* \"#utility.yul\":6898:6902   */\n      0x24\n        /* \"#utility.yul\":6895:6896   */\n      0x00\n        /* \"#utility.yul\":6888:6903   */\n      revert\n        /* \"#utility.yul\":6915:7100   */\n    tag_77:\n        /* \"#utility.yul\":6955:6956   */\n      0x00\n        /* \"#utility.yul\":6972:6992   */\n      tag_182\n        /* \"#utility.yul\":6990:6991   */\n      dup3\n        /* \"#utility.yul\":6972:6992   */\n      tag_91\n      jump\t// in\n    tag_182:\n        /* \"#utility.yul\":6967:6992   */\n      swap2\n      pop\n        /* \"#utility.yul\":7006:7026   */\n      tag_183\n        /* \"#utility.yul\":7024:7025   */\n      dup4\n        /* \"#utility.yul\":7006:7026   */\n      tag_91\n      jump\t// in\n    tag_183:\n        /* \"#utility.yul\":7001:7026   */\n      swap3\n      pop\n        /* \"#utility.yul\":7045:7046   */\n      dup3\n        /* \"#utility.yul\":7035:7070   */\n      tag_184\n      jumpi\n        /* \"#utility.yul\":7050:7068   */\n      tag_185\n      tag_105\n      jump\t// in\n    tag_185:\n        /* \"#utility.yul\":7035:7070   */\n    tag_184:\n        /* \"#utility.yul\":7092:7093   */\n      dup3\n        /* \"#utility.yul\":7089:7090   */\n      dup3\n        /* \"#utility.yul\":7085:7094   */\n      div\n        /* \"#utility.yul\":7080:7094   */\n      swap1\n      pop\n        /* \"#utility.yul\":6915:7100   */\n      swap3\n      swap2\n      pop\n      pop\n      jump\t// out\n        /* \"#utility.yul\":7106:7211   */\n    tag_106:\n        /* \"#utility.yul\":7142:7149   */\n      0x00\n        /* \"#utility.yul\":7182:7204   */\n      0xffffffffffffffffffff\n        /* \"#utility.yul\":7175:7180   */\n      dup3\n        /* \"#utility.yul\":7171:7205   */\n      and\n        /* \"#utility.yul\":7160:7205   */\n      swap1\n      pop\n        /* \"#utility.yul\":7106:7211   */\n      swap2\n      swap1\n      pop\n      jump\t// out\n        /* \"#utility.yul\":7217:7337   */\n    tag_107:\n        /* \"#utility.yul\":7289:7312   */\n      tag_188\n        /* \"#utility.yul\":7306:7311   */\n      dup2\n        /* \"#utility.yul\":7289:7312   */\n      tag_106\n      jump\t// in\n    tag_188:\n        /* \"#utility.yul\":7282:7287   */\n      dup2\n        /* \"#utility.yul\":7279:7313   */\n      eq\n        /* \"#utility.yul\":7269:7331   */\n      tag_189\n      jumpi\n        /* \"#utility.yul\":7327:7328   */\n      0x00\n        /* \"#utility.yul\":7324:7325   */\n      dup1\n        /* \"#utility.yul\":7317:7329   */\n      revert\n        /* \"#utility.yul\":7269:7331   */\n    tag_189:\n        /* \"#utility.yul\":7217:7337   */\n      pop\n      jump\t// out\n        /* \"#utility.yul\":7343:7484   */\n    tag_108:\n        /* \"#utility.yul\":7399:7404   */\n      0x00\n        /* \"#utility.yul\":7430:7436   */\n      dup2\n        /* \"#utility.yul\":7424:7437   */\n      mload\n        /* \"#utility.yul\":7415:7437   */\n      swap1\n      pop\n        /* \"#utility.yul\":7446:7478   */\n      tag_191\n        /* \"#utility.yul\":7472:7477   */\n      dup2\n        /* \"#utility.yul\":7446:7478   */\n      tag_107\n      jump\t// in\n    tag_191:\n        /* \"#utility.yul\":7343:7484   */\n      swap3\n      swap2\n      pop\n      pop\n      jump\t// out\n        /* \"#utility.yul\":7490:7566   */\n    tag_109:\n        /* \"#utility.yul\":7526:7533   */\n      0x00\n        /* \"#utility.yul\":7555:7560   */\n      dup2\n        /* \"#utility.yul\":7544:7560   */\n      swap1\n      pop\n        /* \"#utility.yul\":7490:7566   */\n      swap2\n      swap1\n      pop\n      jump\t// out\n        /* \"#utility.yul\":7572:7692   */\n    tag_110:\n        /* \"#utility.yul\":7644:7667   */\n      tag_194\n        /* \"#utility.yul\":7661:7666   */\n      dup2\n        /* \"#utility.yul\":7644:7667   */\n      tag_109\n      jump\t// in\n    tag_194:\n        /* \"#utility.yul\":7637:7642   */\n      dup2\n        /* \"#utility.yul\":7634:7668   */\n      eq\n        /* \"#utility.yul\":7624:7686   */\n      tag_195\n      jumpi\n        /* \"#utility.yul\":7682:7683   */\n      0x00\n        /* \"#utility.yul\":7679:7680   */\n      dup1\n        /* \"#utility.yul\":7672:7684   */\n      revert\n        /* \"#utility.yul\":7624:7686   */\n    tag_195:\n        /* \"#utility.yul\":7572:7692   */\n      pop\n      jump\t// out\n        /* \"#utility.yul\":7698:7839   */\n    tag_111:\n        /* \"#utility.yul\":7754:7759   */\n      0x00\n        /* \"#utility.yul\":7785:7791   */\n      dup2\n        /* \"#utility.yul\":7779:7792   */\n      mload\n        /* \"#utility.yul\":7770:7792   */\n      swap1\n      pop\n        /* \"#utility.yul\":7801:7833   */\n      tag_197\n        /* \"#utility.yul\":7827:7832   */\n      dup2\n        /* \"#utility.yul\":7801:7833   */\n      tag_110\n      jump\t// in\n    tag_197:\n        /* \"#utility.yul\":7698:7839   */\n      swap3\n      swap2\n      pop\n      pop\n      jump\t// out\n        /* \"#utility.yul\":7845:7988   */\n    tag_112:\n        /* \"#utility.yul\":7902:7907   */\n      0x00\n        /* \"#utility.yul\":7933:7939   */\n      dup2\n        /* \"#utility.yul\":7927:7940   */\n      mload\n        /* \"#utility.yul\":7918:7940   */\n      swap1\n      pop\n        /* \"#utility.yul\":7949:7982   */\n      tag_199\n        /* \"#utility.yul\":7976:7981   */\n      dup2\n        /* \"#utility.yul\":7949:7982   */\n      tag_94\n      jump\t// in\n    tag_199:\n        /* \"#utility.yul\":7845:7988   */\n      swap3\n      swap2\n      pop\n      pop\n      jump\t// out\n        /* \"#utility.yul\":7994:8965   */\n    tag_82:\n        /* \"#utility.yul\":8097:8103   */\n      0x00\n        /* \"#utility.yul\":8105:8111   */\n      dup1\n        /* \"#utility.yul\":8113:8119   */\n      0x00\n        /* \"#utility.yul\":8121:8127   */\n      dup1\n        /* \"#utility.yul\":8129:8135   */\n      0x00\n        /* \"#utility.yul\":8178:8181   */\n      0xa0\n        /* \"#utility.yul\":8166:8175   */\n      dup7\n        /* \"#utility.yul\":8157:8164   */\n      dup9\n        /* \"#utility.yul\":8153:8176   */\n      sub\n        /* \"#utility.yul\":8149:8182   */\n      slt\n        /* \"#utility.yul\":8146:8266   */\n      iszero\n      tag_201\n      jumpi\n        /* \"#utility.yul\":8185:8264   */\n      tag_202\n      tag_85\n      jump\t// in\n    tag_202:\n        /* \"#utility.yul\":8146:8266   */\n    tag_201:\n        /* \"#utility.yul\":8305:8306   */\n      0x00\n        /* \"#utility.yul\":8330:8393   */\n      tag_203\n        /* \"#utility.yul\":8385:8392   */\n      dup9\n        /* \"#utility.yul\":8376:8382   */\n      dup3\n        /* \"#utility.yul\":8365:8374   */\n      dup10\n        /* \"#utility.yul\":8361:8383   */\n      add\n        /* \"#utility.yul\":8330:8393   */\n      tag_108\n      jump\t// in\n    tag_203:\n        /* \"#utility.yul\":8320:8393   */\n      swap6\n      pop\n        /* \"#utility.yul\":8276:8403   */\n      pop\n        /* \"#utility.yul\":8442:8444   */\n      0x20\n        /* \"#utility.yul\":8468:8531   */\n      tag_204\n        /* \"#utility.yul\":8523:8530   */\n      dup9\n        /* \"#utility.yul\":8514:8520   */\n      dup3\n        /* \"#utility.yul\":8503:8512   */\n      dup10\n        /* \"#utility.yul\":8499:8521   */\n      add\n        /* \"#utility.yul\":8468:8531   */\n      tag_111\n      jump\t// in\n    tag_204:\n        /* \"#utility.yul\":8458:8531   */\n      swap5\n      pop\n        /* \"#utility.yul\":8413:8541   */\n      pop\n        /* \"#utility.yul\":8580:8582   */\n      0x40\n        /* \"#utility.yul\":8606:8670   */\n      tag_205\n        /* \"#utility.yul\":8662:8669   */\n      dup9\n        /* \"#utility.yul\":8653:8659   */\n      dup3\n        /* \"#utility.yul\":8642:8651   */\n      dup10\n        /* \"#utility.yul\":8638:8660   */\n      add\n        /* \"#utility.yul\":8606:8670   */\n      tag_112\n      jump\t// in\n    tag_205:\n        /* \"#utility.yul\":8596:8670   */\n      swap4\n      pop\n        /* \"#utility.yul\":8551:8680   */\n      pop\n        /* \"#utility.yul\":8719:8721   */\n      0x60\n        /* \"#utility.yul\":8745:8809   */\n      tag_206\n        /* \"#utility.yul\":8801:8808   */\n      dup9\n        /* \"#utility.yul\":8792:8798   */\n      dup3\n        /* \"#utility.yul\":8781:8790   */\n      dup10\n        /* \"#utility.yul\":8777:8799   */\n      add\n        /* \"#utility.yul\":8745:8809   */\n      tag_112\n      jump\t// in\n    tag_206:\n        /* \"#utility.yul\":8735:8809   */\n      swap3\n      pop\n        /* \"#utility.yul\":8690:8819   */\n      pop\n        /* \"#utility.yul\":8858:8861   */\n      0x80\n        /* \"#utility.yul\":8885:8948   */\n      tag_207\n        /* \"#utility.yul\":8940:8947   */\n      dup9\n        /* \"#utility.yul\":8931:8937   */\n      dup3\n        /* \"#utility.yul\":8920:8929   */\n      dup10\n        /* \"#utility.yul\":8916:8938   */\n      add\n        /* \"#utility.yul\":8885:8948   */\n      tag_108\n      jump\t// in\n    tag_207:\n        /* \"#utility.yul\":8875:8948   */\n      swap2\n      pop\n        /* \"#utility.yul\":8829:8958   */\n      pop\n        /* \"#utility.yul\":7994:8965   */\n      swap3\n      swap6\n      pop\n      swap3\n      swap6\n      swap1\n      swap4\n      pop\n      jump\t// out\n\n    auxdata: 0xa2646970667358221220bf296fb7c0a97b2b97f97b88ef15c97ce987f8a127dd4bb62676f96f3c8cbf6664736f6c63430008180033\n}\n",
				"bytecode": {
					"linkReferences": {},
					"object": "60a0604052674563918244f400005f5534801561001a575f80fd5b503373ffffffffffffffffffffffffffffffffffffffff1660808173ffffffffffffffffffffffffffffffffffffffff1681525050608051610a7061006e5f395f818161029701526104800152610a705ff3fe608060405260043610610058575f3560e01c80633ccfd60b146100715780633e47d6f31461008757806351b80e41146100c3578063b60d4288146100ed578063dba6335f146100f7578063dc0d3dff1461012157610067565b366100675761006561015d565b005b61006f61015d565b005b34801561007c575f80fd5b50610085610295565b005b348015610092575f80fd5b506100ad60048036038101906100a89190610618565b610464565b6040516100ba919061065b565b60405180910390f35b3480156100ce575f80fd5b506100d7610479565b6040516100e4919061065b565b60405180910390f35b6100f561015d565b005b348015610102575f80fd5b5061010b61047e565b6040516101189190610683565b60405180910390f35b34801561012c575f80fd5b50610147600480360381019061014291906106c6565b6104a2565b6040516101549190610683565b60405180910390f35b5f54610168346104dd565b10156101a9576040517f08c379a00000000000000000000000000000000000000000000000000000000081526004016101a09061074b565b60405180910390fd5b600133908060018154018082558091505060019003905f5260205f20015f9091909190916101000a81548173ffffffffffffffffffffffffffffffffffffffff021916908373ffffffffffffffffffffffffffffffffffffffff1602179055503460025f3373ffffffffffffffffffffffffffffffffffffffff1673ffffffffffffffffffffffffffffffffffffffff1681526020019081526020015f20546102529190610796565b60025f3373ffffffffffffffffffffffffffffffffffffffff1673ffffffffffffffffffffffffffffffffffffffff1681526020019081526020015f2081905550565b7f000000000000000000000000000000000000000000000000000000000000000073ffffffffffffffffffffffffffffffffffffffff163373ffffffffffffffffffffffffffffffffffffffff161461031a576040517f30cd747100000000000000000000000000000000000000000000000000000000815260040160405180910390fd5b5f5b6001805490508110156103b8575f6001828154811061033e5761033d6107c9565b5b905f5260205f20015f9054906101000a900473ffffffffffffffffffffffffffffffffffffffff1690505f60025f8373ffffffffffffffffffffffffffffffffffffffff1673ffffffffffffffffffffffffffffffffffffffff1681526020019081526020015f208190555050808060010191505061031c565b505f3373ffffffffffffffffffffffffffffffffffffffff16476040516103de90610823565b5f6040518083038185875af1925050503d805f8114610418576040519150601f19603f3d011682016040523d82523d5f602084013e61041d565b606091505b5050905080610461576040517f08c379a000000000000000000000000000000000000000000000000000000000815260040161045890610881565b60405180910390fd5b50565b6002602052805f5260405f205f915090505481565b5f5481565b7f000000000000000000000000000000000000000000000000000000000000000081565b600181815481106104b1575f80fd5b905f5260205f20015f915054906101000a900473ffffffffffffffffffffffffffffffffffffffff1681565b5f806104e7610515565b90505f670de0b6b3a764000084836104ff919061089f565b610509919061090d565b90508092505050919050565b5f8073694aa1769357215de4fac081bf1f309adc32530690505f8173ffffffffffffffffffffffffffffffffffffffff1663feaf968c6040518163ffffffff1660e01b815260040160a060405180830381865afa158015610578573d5f803e3d5ffd5b505050506040513d601f19601f8201168201806040525081019061059c91906109c3565b5050509150506402540be400816105b3919061089f565b9250505090565b5f80fd5b5f73ffffffffffffffffffffffffffffffffffffffff82169050919050565b5f6105e7826105be565b9050919050565b6105f7816105dd565b8114610601575f80fd5b50565b5f81359050610612816105ee565b92915050565b5f6020828403121561062d5761062c6105ba565b5b5f61063a84828501610604565b91505092915050565b5f819050919050565b61065581610643565b82525050565b5f60208201905061066e5f83018461064c565b92915050565b61067d816105dd565b82525050565b5f6020820190506106965f830184610674565b92915050565b6106a581610643565b81146106af575f80fd5b50565b5f813590506106c08161069c565b92915050565b5f602082840312156106db576106da6105ba565b5b5f6106e8848285016106b2565b91505092915050565b5f82825260208201905092915050565b7f4574682073656e7420697320746f6f206c6f77000000000000000000000000005f82015250565b5f6107356013836106f1565b915061074082610701565b602082019050919050565b5f6020820190508181035f83015261076281610729565b9050919050565b7f4e487b71000000000000000000000000000000000000000000000000000000005f52601160045260245ffd5b5f6107a082610643565b91506107ab83610643565b92508282019050808211156107c3576107c2610769565b5b92915050565b7f4e487b71000000000000000000000000000000000000000000000000000000005f52603260045260245ffd5b5f81905092915050565b50565b5f61080e5f836107f6565b915061081982610800565b5f82019050919050565b5f61082d82610803565b9150819050919050565b7f43616c6c206661696c65640000000000000000000000000000000000000000005f82015250565b5f61086b600b836106f1565b915061087682610837565b602082019050919050565b5f6020820190508181035f8301526108988161085f565b9050919050565b5f6108a982610643565b91506108b483610643565b92508282026108c281610643565b915082820484148315176108d9576108d8610769565b5b5092915050565b7f4e487b71000000000000000000000000000000000000000000000000000000005f52601260045260245ffd5b5f61091782610643565b915061092283610643565b925082610932576109316108e0565b5b828204905092915050565b5f69ffffffffffffffffffff82169050919050565b61095b8161093d565b8114610965575f80fd5b50565b5f8151905061097681610952565b92915050565b5f819050919050565b61098e8161097c565b8114610998575f80fd5b50565b5f815190506109a981610985565b92915050565b5f815190506109bd8161069c565b92915050565b5f805f805f60a086880312156109dc576109db6105ba565b5b5f6109e988828901610968565b95505060206109fa8882890161099b565b9450506040610a0b888289016109af565b9350506060610a1c888289016109af565b9250506080610a2d88828901610968565b915050929550929590935056fea2646970667358221220bf296fb7c0a97b2b97f97b88ef15c97ce987f8a127dd4bb62676f96f3c8cbf6664736f6c63430008180033",
					"opcodes": "PUSH1 0xA0 PUSH1 0x40 MSTORE PUSH8 0x4563918244F40000 PUSH0 SSTORE CALLVALUE DUP1 ISZERO PUSH2 0x1A JUMPI PUSH0 DUP1 REVERT JUMPDEST POP CALLER PUSH20 0xFFFFFFFFFFFFFFFFFFFFFFFFFFFFFFFFFFFFFFFF AND PUSH1 0x80 DUP2 PUSH20 0xFFFFFFFFFFFFFFFFFFFFFFFFFFFFFFFFFFFFFFFF AND DUP2 MSTORE POP POP PUSH1 0x80 MLOAD PUSH2 0xA70 PUSH2 0x6E PUSH0 CODECOPY PUSH0 DUP2 DUP2 PUSH2 0x297 ADD MSTORE PUSH2 0x480 ADD MSTORE PUSH2 0xA70 PUSH0 RETURN INVALID PUSH1 0x80 PUSH1 0x40 MSTORE PUSH1 0x4 CALLDATASIZE LT PUSH2 0x58 JUMPI PUSH0 CALLDATALOAD PUSH1 0xE0 SHR DUP1 PUSH4 0x3CCFD60B EQ PUSH2 0x71 JUMPI DUP1 PUSH4 0x3E47D6F3 EQ PUSH2 0x87 JUMPI DUP1 PUSH4 0x51B80E41 EQ PUSH2 0xC3 JUMPI DUP1 PUSH4 0xB60D4288 EQ PUSH2 0xED JUMPI DUP1 PUSH4 0xDBA6335F EQ PUSH2 0xF7 JUMPI DUP1 PUSH4 0xDC0D3DFF EQ PUSH2 0x121 JUMPI PUSH2 0x67 JUMP JUMPDEST CALLDATASIZE PUSH2 0x67 JUMPI PUSH2 0x65 PUSH2 0x15D JUMP JUMPDEST STOP JUMPDEST PUSH2 0x6F PUSH2 0x15D JUMP JUMPDEST STOP JUMPDEST CALLVALUE DUP1 ISZERO PUSH2 0x7C JUMPI PUSH0 DUP1 REVERT JUMPDEST POP PUSH2 0x85 PUSH2 0x295 JUMP JUMPDEST STOP JUMPDEST CALLVALUE DUP1 ISZERO PUSH2 0x92 JUMPI PUSH0 DUP1 REVERT JUMPDEST POP PUSH2 0xAD PUSH1 0x4 DUP1 CALLDATASIZE SUB DUP2 ADD SWAP1 PUSH2 0xA8 SWAP2 SWAP1 PUSH2 0x618 JUMP JUMPDEST PUSH2 0x464 JUMP JUMPDEST PUSH1 0x40 MLOAD PUSH2 0xBA SWAP2 SWAP1 PUSH2 0x65B JUMP JUMPDEST PUSH1 0x40 MLOAD DUP1 SWAP2 SUB SWAP1 RETURN JUMPDEST CALLVALUE DUP1 ISZERO PUSH2 0xCE JUMPI PUSH0 DUP1 REVERT JUMPDEST POP PUSH2 0xD7 PUSH2 0x479 JUMP JUMPDEST PUSH1 0x40 MLOAD PUSH2 0xE4 SWAP2 SWAP1 PUSH2 0x65B JUMP JUMPDEST PUSH1 0x40 MLOAD DUP1 SWAP2 SUB SWAP1 RETURN JUMPDEST PUSH2 0xF5 PUSH2 0x15D JUMP JUMPDEST STOP JUMPDEST CALLVALUE DUP1 ISZERO PUSH2 0x102 JUMPI PUSH0 DUP1 REVERT JUMPDEST POP PUSH2 0x10B PUSH2 0x47E JUMP JUMPDEST PUSH1 0x40 MLOAD PUSH2 0x118 SWAP2 SWAP1 PUSH2 0x683 JUMP JUMPDEST PUSH1 0x40 MLOAD DUP1 SWAP2 SUB SWAP1 RETURN JUMPDEST CALLVALUE DUP1 ISZERO PUSH2 0x12C JUMPI PUSH0 DUP1 REVERT JUMPDEST POP PUSH2 0x147 PUSH1 0x4 DUP1 CALLDATASIZE SUB DUP2 ADD SWAP1 PUSH2 0x142 SWAP2 SWAP1 PUSH2 0x6C6 JUMP JUMPDEST PUSH2 0x4A2 JUMP JUMPDEST PUSH1 0x40 MLOAD PUSH2 0x154 SWAP2 SWAP1 PUSH2 0x683 JUMP JUMPDEST PUSH1 0x40 MLOAD DUP1 SWAP2 SUB SWAP1 RETURN JUMPDEST PUSH0 SLOAD PUSH2 0x168 CALLVALUE PUSH2 0x4DD JUMP JUMPDEST LT ISZERO PUSH2 0x1A9 JUMPI PUSH1 0x40 MLOAD PUSH32 0x8C379A000000000000000000000000000000000000000000000000000000000 DUP2 MSTORE PUSH1 0x4 ADD PUSH2 0x1A0 SWAP1 PUSH2 0x74B JUMP JUMPDEST PUSH1 0x40 MLOAD DUP1 SWAP2 SUB SWAP1 REVERT JUMPDEST PUSH1 0x1 CALLER SWAP1 DUP1 PUSH1 0x1 DUP2 SLOAD ADD DUP1 DUP3 SSTORE DUP1 SWAP2 POP POP PUSH1 0x1 SWAP1 SUB SWAP1 PUSH0 MSTORE PUSH1 0x20 PUSH0 KECCAK256 ADD PUSH0 SWAP1 SWAP2 SWAP1 SWAP2 SWAP1 SWAP2 PUSH2 0x100 EXP DUP2 SLOAD DUP2 PUSH20 0xFFFFFFFFFFFFFFFFFFFFFFFFFFFFFFFFFFFFFFFF MUL NOT AND SWAP1 DUP4 PUSH20 0xFFFFFFFFFFFFFFFFFFFFFFFFFFFFFFFFFFFFFFFF AND MUL OR SWAP1 SSTORE POP CALLVALUE PUSH1 0x2 PUSH0 CALLER PUSH20 0xFFFFFFFFFFFFFFFFFFFFFFFFFFFFFFFFFFFFFFFF AND PUSH20 0xFFFFFFFFFFFFFFFFFFFFFFFFFFFFFFFFFFFFFFFF AND DUP2 MSTORE PUSH1 0x20 ADD SWAP1 DUP2 MSTORE PUSH1 0x20 ADD PUSH0 KECCAK256 SLOAD PUSH2 0x252 SWAP2 SWAP1 PUSH2 0x796 JUMP JUMPDEST PUSH1 0x2 PUSH0 CALLER PUSH20 0xFFFFFFFFFFFFFFFFFFFFFFFFFFFFFFFFFFFFFFFF AND PUSH20 0xFFFFFFFFFFFFFFFFFFFFFFFFFFFFFFFFFFFFFFFF AND DUP2 MSTORE PUSH1 0x20 ADD SWAP1 DUP2 MSTORE PUSH1 0x20 ADD PUSH0 KECCAK256 DUP2 SWAP1 SSTORE POP JUMP JUMPDEST PUSH32 0x0 PUSH20 0xFFFFFFFFFFFFFFFFFFFFFFFFFFFFFFFFFFFFFFFF AND CALLER PUSH20 0xFFFFFFFFFFFFFFFFFFFFFFFFFFFFFFFFFFFFFFFF AND EQ PUSH2 0x31A JUMPI PUSH1 0x40 MLOAD PUSH32 0x30CD747100000000000000000000000000000000000000000000000000000000 DUP2 MSTORE PUSH1 0x4 ADD PUSH1 0x40 MLOAD DUP1 SWAP2 SUB SWAP1 REVERT JUMPDEST PUSH0 JUMPDEST PUSH1 0x1 DUP1 SLOAD SWAP1 POP DUP2 LT ISZERO PUSH2 0x3B8 JUMPI PUSH0 PUSH1 0x1 DUP3 DUP2 SLOAD DUP2 LT PUSH2 0x33E JUMPI PUSH2 0x33D PUSH2 0x7C9 JUMP JUMPDEST JUMPDEST SWAP1 PUSH0 MSTORE PUSH1 0x20 PUSH0 KECCAK256 ADD PUSH0 SWAP1 SLOAD SWAP1 PUSH2 0x100 EXP SWAP1 DIV PUSH20 0xFFFFFFFFFFFFFFFFFFFFFFFFFFFFFFFFFFFFFFFF AND SWAP1 POP PUSH0 PUSH1 0x2 PUSH0 DUP4 PUSH20 0xFFFFFFFFFFFFFFFFFFFFFFFFFFFFFFFFFFFFFFFF AND PUSH20 0xFFFFFFFFFFFFFFFFFFFFFFFFFFFFFFFFFFFFFFFF AND DUP2 MSTORE PUSH1 0x20 ADD SWAP1 DUP2 MSTORE PUSH1 0x20 ADD PUSH0 KECCAK256 DUP2 SWAP1 SSTORE POP POP DUP1 DUP1 PUSH1 0x1 ADD SWAP2 POP POP PUSH2 0x31C JUMP JUMPDEST POP PUSH0 CALLER PUSH20 0xFFFFFFFFFFFFFFFFFFFFFFFFFFFFFFFFFFFFFFFF AND SELFBALANCE PUSH1 0x40 MLOAD PUSH2 0x3DE SWAP1 PUSH2 0x823 JUMP JUMPDEST PUSH0 PUSH1 0x40 MLOAD DUP1 DUP4 SUB DUP2 DUP6 DUP8 GAS CALL SWAP3 POP POP POP RETURNDATASIZE DUP1 PUSH0 DUP2 EQ PUSH2 0x418 JUMPI PUSH1 0x40 MLOAD SWAP2 POP PUSH1 0x1F NOT PUSH1 0x3F RETURNDATASIZE ADD AND DUP3 ADD PUSH1 0x40 MSTORE RETURNDATASIZE DUP3 MSTORE RETURNDATASIZE PUSH0 PUSH1 0x20 DUP5 ADD RETURNDATACOPY PUSH2 0x41D JUMP JUMPDEST PUSH1 0x60 SWAP2 POP JUMPDEST POP POP SWAP1 POP DUP1 PUSH2 0x461 JUMPI PUSH1 0x40 MLOAD PUSH32 0x8C379A000000000000000000000000000000000000000000000000000000000 DUP2 MSTORE PUSH1 0x4 ADD PUSH2 0x458 SWAP1 PUSH2 0x881 JUMP JUMPDEST PUSH1 0x40 MLOAD DUP1 SWAP2 SUB SWAP1 REVERT JUMPDEST POP JUMP JUMPDEST PUSH1 0x2 PUSH1 0x20 MSTORE DUP1 PUSH0 MSTORE PUSH1 0x40 PUSH0 KECCAK256 PUSH0 SWAP2 POP SWAP1 POP SLOAD DUP2 JUMP JUMPDEST PUSH0 SLOAD DUP2 JUMP JUMPDEST PUSH32 0x0 DUP2 JUMP JUMPDEST PUSH1 0x1 DUP2 DUP2 SLOAD DUP2 LT PUSH2 0x4B1 JUMPI PUSH0 DUP1 REVERT JUMPDEST SWAP1 PUSH0 MSTORE PUSH1 0x20 PUSH0 KECCAK256 ADD PUSH0 SWAP2 POP SLOAD SWAP1 PUSH2 0x100 EXP SWAP1 DIV PUSH20 0xFFFFFFFFFFFFFFFFFFFFFFFFFFFFFFFFFFFFFFFF AND DUP2 JUMP JUMPDEST PUSH0 DUP1 PUSH2 0x4E7 PUSH2 0x515 JUMP JUMPDEST SWAP1 POP PUSH0 PUSH8 0xDE0B6B3A7640000 DUP5 DUP4 PUSH2 0x4FF SWAP2 SWAP1 PUSH2 0x89F JUMP JUMPDEST PUSH2 0x509 SWAP2 SWAP1 PUSH2 0x90D JUMP JUMPDEST SWAP1 POP DUP1 SWAP3 POP POP POP SWAP2 SWAP1 POP JUMP JUMPDEST PUSH0 DUP1 PUSH20 0x694AA1769357215DE4FAC081BF1F309ADC325306 SWAP1 POP PUSH0 DUP2 PUSH20 0xFFFFFFFFFFFFFFFFFFFFFFFFFFFFFFFFFFFFFFFF AND PUSH4 0xFEAF968C PUSH1 0x40 MLOAD DUP2 PUSH4 0xFFFFFFFF AND PUSH1 0xE0 SHL DUP2 MSTORE PUSH1 0x4 ADD PUSH1 0xA0 PUSH1 0x40 MLOAD DUP1 DUP4 SUB DUP2 DUP7 GAS STATICCALL ISZERO DUP1 ISZERO PUSH2 0x578 JUMPI RETURNDATASIZE PUSH0 DUP1 RETURNDATACOPY RETURNDATASIZE PUSH0 REVERT JUMPDEST POP POP POP POP PUSH1 0x40 MLOAD RETURNDATASIZE PUSH1 0x1F NOT PUSH1 0x1F DUP3 ADD AND DUP3 ADD DUP1 PUSH1 0x40 MSTORE POP DUP2 ADD SWAP1 PUSH2 0x59C SWAP2 SWAP1 PUSH2 0x9C3 JUMP JUMPDEST POP POP POP SWAP2 POP POP PUSH5 0x2540BE400 DUP2 PUSH2 0x5B3 SWAP2 SWAP1 PUSH2 0x89F JUMP JUMPDEST SWAP3 POP POP POP SWAP1 JUMP JUMPDEST PUSH0 DUP1 REVERT JUMPDEST PUSH0 PUSH20 0xFFFFFFFFFFFFFFFFFFFFFFFFFFFFFFFFFFFFFFFF DUP3 AND SWAP1 POP SWAP2 SWAP1 POP JUMP JUMPDEST PUSH0 PUSH2 0x5E7 DUP3 PUSH2 0x5BE JUMP JUMPDEST SWAP1 POP SWAP2 SWAP1 POP JUMP JUMPDEST PUSH2 0x5F7 DUP2 PUSH2 0x5DD JUMP JUMPDEST DUP2 EQ PUSH2 0x601 JUMPI PUSH0 DUP1 REVERT JUMPDEST POP JUMP JUMPDEST PUSH0 DUP2 CALLDATALOAD SWAP1 POP PUSH2 0x612 DUP2 PUSH2 0x5EE JUMP JUMPDEST SWAP3 SWAP2 POP POP JUMP JUMPDEST PUSH0 PUSH1 0x20 DUP3 DUP5 SUB SLT ISZERO PUSH2 0x62D JUMPI PUSH2 0x62C PUSH2 0x5BA JUMP JUMPDEST JUMPDEST PUSH0 PUSH2 0x63A DUP5 DUP3 DUP6 ADD PUSH2 0x604 JUMP JUMPDEST SWAP2 POP POP SWAP3 SWAP2 POP POP JUMP JUMPDEST PUSH0 DUP2 SWAP1 POP SWAP2 SWAP1 POP JUMP JUMPDEST PUSH2 0x655 DUP2 PUSH2 0x643 JUMP JUMPDEST DUP3 MSTORE POP POP JUMP JUMPDEST PUSH0 PUSH1 0x20 DUP3 ADD SWAP1 POP PUSH2 0x66E PUSH0 DUP4 ADD DUP5 PUSH2 0x64C JUMP JUMPDEST SWAP3 SWAP2 POP POP JUMP JUMPDEST PUSH2 0x67D DUP2 PUSH2 0x5DD JUMP JUMPDEST DUP3 MSTORE POP POP JUMP JUMPDEST PUSH0 PUSH1 0x20 DUP3 ADD SWAP1 POP PUSH2 0x696 PUSH0 DUP4 ADD DUP5 PUSH2 0x674 JUMP JUMPDEST SWAP3 SWAP2 POP POP JUMP JUMPDEST PUSH2 0x6A5 DUP2 PUSH2 0x643 JUMP JUMPDEST DUP2 EQ PUSH2 0x6AF JUMPI PUSH0 DUP1 REVERT JUMPDEST POP JUMP JUMPDEST PUSH0 DUP2 CALLDATALOAD SWAP1 POP PUSH2 0x6C0 DUP2 PUSH2 0x69C JUMP JUMPDEST SWAP3 SWAP2 POP POP JUMP JUMPDEST PUSH0 PUSH1 0x20 DUP3 DUP5 SUB SLT ISZERO PUSH2 0x6DB JUMPI PUSH2 0x6DA PUSH2 0x5BA JUMP JUMPDEST JUMPDEST PUSH0 PUSH2 0x6E8 DUP5 DUP3 DUP6 ADD PUSH2 0x6B2 JUMP JUMPDEST SWAP2 POP POP SWAP3 SWAP2 POP POP JUMP JUMPDEST PUSH0 DUP3 DUP3 MSTORE PUSH1 0x20 DUP3 ADD SWAP1 POP SWAP3 SWAP2 POP POP JUMP JUMPDEST PUSH32 0x4574682073656E7420697320746F6F206C6F7700000000000000000000000000 PUSH0 DUP3 ADD MSTORE POP JUMP JUMPDEST PUSH0 PUSH2 0x735 PUSH1 0x13 DUP4 PUSH2 0x6F1 JUMP JUMPDEST SWAP2 POP PUSH2 0x740 DUP3 PUSH2 0x701 JUMP JUMPDEST PUSH1 0x20 DUP3 ADD SWAP1 POP SWAP2 SWAP1 POP JUMP JUMPDEST PUSH0 PUSH1 0x20 DUP3 ADD SWAP1 POP DUP2 DUP2 SUB PUSH0 DUP4 ADD MSTORE PUSH2 0x762 DUP2 PUSH2 0x729 JUMP JUMPDEST SWAP1 POP SWAP2 SWAP1 POP JUMP JUMPDEST PUSH32 0x4E487B7100000000000000000000000000000000000000000000000000000000 PUSH0 MSTORE PUSH1 0x11 PUSH1 0x4 MSTORE PUSH1 0x24 PUSH0 REVERT JUMPDEST PUSH0 PUSH2 0x7A0 DUP3 PUSH2 0x643 JUMP JUMPDEST SWAP2 POP PUSH2 0x7AB DUP4 PUSH2 0x643 JUMP JUMPDEST SWAP3 POP DUP3 DUP3 ADD SWAP1 POP DUP1 DUP3 GT ISZERO PUSH2 0x7C3 JUMPI PUSH2 0x7C2 PUSH2 0x769 JUMP JUMPDEST JUMPDEST SWAP3 SWAP2 POP POP JUMP JUMPDEST PUSH32 0x4E487B7100000000000000000000000000000000000000000000000000000000 PUSH0 MSTORE PUSH1 0x32 PUSH1 0x4 MSTORE PUSH1 0x24 PUSH0 REVERT JUMPDEST PUSH0 DUP2 SWAP1 POP SWAP3 SWAP2 POP POP JUMP JUMPDEST POP JUMP JUMPDEST PUSH0 PUSH2 0x80E PUSH0 DUP4 PUSH2 0x7F6 JUMP JUMPDEST SWAP2 POP PUSH2 0x819 DUP3 PUSH2 0x800 JUMP JUMPDEST PUSH0 DUP3 ADD SWAP1 POP SWAP2 SWAP1 POP JUMP JUMPDEST PUSH0 PUSH2 0x82D DUP3 PUSH2 0x803 JUMP JUMPDEST SWAP2 POP DUP2 SWAP1 POP SWAP2 SWAP1 POP JUMP JUMPDEST PUSH32 0x43616C6C206661696C6564000000000000000000000000000000000000000000 PUSH0 DUP3 ADD MSTORE POP JUMP JUMPDEST PUSH0 PUSH2 0x86B PUSH1 0xB DUP4 PUSH2 0x6F1 JUMP JUMPDEST SWAP2 POP PUSH2 0x876 DUP3 PUSH2 0x837 JUMP JUMPDEST PUSH1 0x20 DUP3 ADD SWAP1 POP SWAP2 SWAP1 POP JUMP JUMPDEST PUSH0 PUSH1 0x20 DUP3 ADD SWAP1 POP DUP2 DUP2 SUB PUSH0 DUP4 ADD MSTORE PUSH2 0x898 DUP2 PUSH2 0x85F JUMP JUMPDEST SWAP1 POP SWAP2 SWAP1 POP JUMP JUMPDEST PUSH0 PUSH2 0x8A9 DUP3 PUSH2 0x643 JUMP JUMPDEST SWAP2 POP PUSH2 0x8B4 DUP4 PUSH2 0x643 JUMP JUMPDEST SWAP3 POP DUP3 DUP3 MUL PUSH2 0x8C2 DUP2 PUSH2 0x643 JUMP JUMPDEST SWAP2 POP DUP3 DUP3 DIV DUP5 EQ DUP4 ISZERO OR PUSH2 0x8D9 JUMPI PUSH2 0x8D8 PUSH2 0x769 JUMP JUMPDEST JUMPDEST POP SWAP3 SWAP2 POP POP JUMP JUMPDEST PUSH32 0x4E487B7100000000000000000000000000000000000000000000000000000000 PUSH0 MSTORE PUSH1 0x12 PUSH1 0x4 MSTORE PUSH1 0x24 PUSH0 REVERT JUMPDEST PUSH0 PUSH2 0x917 DUP3 PUSH2 0x643 JUMP JUMPDEST SWAP2 POP PUSH2 0x922 DUP4 PUSH2 0x643 JUMP JUMPDEST SWAP3 POP DUP3 PUSH2 0x932 JUMPI PUSH2 0x931 PUSH2 0x8E0 JUMP JUMPDEST JUMPDEST DUP3 DUP3 DIV SWAP1 POP SWAP3 SWAP2 POP POP JUMP JUMPDEST PUSH0 PUSH10 0xFFFFFFFFFFFFFFFFFFFF DUP3 AND SWAP1 POP SWAP2 SWAP1 POP JUMP JUMPDEST PUSH2 0x95B DUP2 PUSH2 0x93D JUMP JUMPDEST DUP2 EQ PUSH2 0x965 JUMPI PUSH0 DUP1 REVERT JUMPDEST POP JUMP JUMPDEST PUSH0 DUP2 MLOAD SWAP1 POP PUSH2 0x976 DUP2 PUSH2 0x952 JUMP JUMPDEST SWAP3 SWAP2 POP POP JUMP JUMPDEST PUSH0 DUP2 SWAP1 POP SWAP2 SWAP1 POP JUMP JUMPDEST PUSH2 0x98E DUP2 PUSH2 0x97C JUMP JUMPDEST DUP2 EQ PUSH2 0x998 JUMPI PUSH0 DUP1 REVERT JUMPDEST POP JUMP JUMPDEST PUSH0 DUP2 MLOAD SWAP1 POP PUSH2 0x9A9 DUP2 PUSH2 0x985 JUMP JUMPDEST SWAP3 SWAP2 POP POP JUMP JUMPDEST PUSH0 DUP2 MLOAD SWAP1 POP PUSH2 0x9BD DUP2 PUSH2 0x69C JUMP JUMPDEST SWAP3 SWAP2 POP POP JUMP JUMPDEST PUSH0 DUP1 PUSH0 DUP1 PUSH0 PUSH1 0xA0 DUP7 DUP9 SUB SLT ISZERO PUSH2 0x9DC JUMPI PUSH2 0x9DB PUSH2 0x5BA JUMP JUMPDEST JUMPDEST PUSH0 PUSH2 0x9E9 DUP9 DUP3 DUP10 ADD PUSH2 0x968 JUMP JUMPDEST SWAP6 POP POP PUSH1 0x20 PUSH2 0x9FA DUP9 DUP3 DUP10 ADD PUSH2 0x99B JUMP JUMPDEST SWAP5 POP POP PUSH1 0x40 PUSH2 0xA0B DUP9 DUP3 DUP10 ADD PUSH2 0x9AF JUMP JUMPDEST SWAP4 POP POP PUSH1 0x60 PUSH2 0xA1C DUP9 DUP3 DUP10 ADD PUSH2 0x9AF JUMP JUMPDEST SWAP3 POP POP PUSH1 0x80 PUSH2 0xA2D DUP9 DUP3 DUP10 ADD PUSH2 0x968 JUMP JUMPDEST SWAP2 POP POP SWAP3 SWAP6 POP SWAP3 SWAP6 SWAP1 SWAP4 POP JUMP INVALID LOG2 PUSH5 0x6970667358 0x22 SLT KECCAK256 0xBF 0x29 PUSH16 0xB7C0A97B2B97F97B88EF15C97CE987F8 LOG1 0x27 0xDD 0x4B 0xB6 0x26 PUSH23 0xF96F3C8CBF6664736F6C63430008180033000000000000 "
				},
				"gasEstimates": {
					"creation": {
						"codeDepositCost": "534400",
						"executionCost": "infinite",
						"totalCost": "infinite"
					},
					"external": {
						"": "infinite",
						"addressToAmountFunded(address)": "2802",
						"fund()": "infinite",
						"funders(uint256)": "5032",
						"i_owner()": "infinite",
						"minUsd()": "2446",
						"withdraw()": "infinite"
					}
				},
				"methodIdentifiers": {
					"addressToAmountFunded(address)": "3e47d6f3",
					"fund()": "b60d4288",
					"funders(uint256)": "dc0d3dff",
					"i_owner()": "dba6335f",
					"minUsd()": "51b80e41",
					"withdraw()": "3ccfd60b"
				}
			},
			"storageLayout": {
				"storage": [
					{
						"astId": 57,
						"contract": "FundMe.sol:FundMe",
						"label": "minUsd",
						"offset": 0,
						"slot": "0",
						"type": "t_uint256"
					},
					{
						"astId": 60,
						"contract": "FundMe.sol:FundMe",
						"label": "funders",
						"offset": 0,
						"slot": "1",
						"type": "t_array(t_address)dyn_storage"
					},
					{
						"astId": 64,
						"contract": "FundMe.sol:FundMe",
						"label": "addressToAmountFunded",
						"offset": 0,
						"slot": "2",
						"type": "t_mapping(t_address,t_uint256)"
					}
				],
				"types": {
					"t_address": {
						"encoding": "inplace",
						"label": "address",
						"numberOfBytes": "20"
					},
					"t_array(t_address)dyn_storage": {
						"base": "t_address",
						"encoding": "dynamic_array",
						"label": "address[]",
						"numberOfBytes": "32"
					},
					"t_mapping(t_address,t_uint256)": {
						"encoding": "mapping",
						"key": "t_address",
						"label": "mapping(address => uint256)",
						"numberOfBytes": "32",
						"value": "t_uint256"
					},
					"t_uint256": {
						"encoding": "inplace",
						"label": "uint256",
						"numberOfBytes": "32"
					}
				}
			},
			"userdoc": {
				"kind": "user",
				"methods": {},
				"version": 1
			}
		}
	}
}